{
  "contractName": "Sankalp",
  "abi": [
    {
      "inputs": [],
      "stateMutability": "payable",
      "type": "constructor",
      "payable": true
    },
    {
      "anonymous": false,
      "inputs": [
        {
          "indexed": true,
          "internalType": "address",
          "name": "from",
          "type": "address"
        },
        {
          "indexed": true,
          "internalType": "address",
          "name": "to",
          "type": "address"
        },
        {
          "indexed": false,
          "internalType": "uint256",
          "name": "cost",
          "type": "uint256"
        }
      ],
      "name": "Transfer",
      "type": "event"
    },
    {
      "inputs": [
        {
          "internalType": "uint256",
          "name": "memberType",
          "type": "uint256"
        },
        {
          "internalType": "string",
          "name": "name",
          "type": "string"
        }
      ],
      "name": "registerUser",
      "outputs": [],
      "stateMutability": "payable",
      "type": "function",
      "payable": true
    },
    {
      "inputs": [],
      "name": "getAllWorkouts",
      "outputs": [
        {
          "components": [
            {
              "internalType": "string",
              "name": "uid",
              "type": "string"
            },
            {
              "internalType": "string",
              "name": "packageName",
              "type": "string"
            },
            {
              "internalType": "string",
              "name": "description",
              "type": "string"
            },
            {
              "internalType": "string",
              "name": "bodyType",
              "type": "string"
            },
            {
              "internalType": "string",
              "name": "diet",
              "type": "string"
            },
            {
              "internalType": "string",
              "name": "reps",
              "type": "string"
            },
            {
              "internalType": "uint256",
              "name": "sellCost",
              "type": "uint256"
            },
            {
              "internalType": "uint256",
              "name": "rentCost",
              "type": "uint256"
            },
            {
              "internalType": "uint256",
              "name": "UserRating",
              "type": "uint256"
            },
            {
              "internalType": "bool",
              "name": "deleted",
              "type": "bool"
            }
          ],
          "internalType": "struct Sankalp.workoutPackage[]",
          "name": "",
          "type": "tuple[]"
        }
      ],
      "stateMutability": "view",
      "type": "function",
      "constant": true
    },
    {
      "inputs": [
        {
          "internalType": "string",
          "name": "id",
          "type": "string"
        }
      ],
      "name": "getOwner",
      "outputs": [
        {
          "components": [
            {
              "internalType": "string",
              "name": "name",
              "type": "string"
            },
            {
              "internalType": "uint256",
              "name": "balance",
              "type": "uint256"
            },
            {
              "internalType": "uint256",
              "name": "memberType",
              "type": "uint256"
            },
            {
              "internalType": "uint256",
              "name": "rating",
              "type": "uint256"
            },
            {
              "internalType": "uint256",
              "name": "supscriptionCount",
              "type": "uint256"
            }
          ],
          "internalType": "struct Sankalp.user",
          "name": "",
          "type": "tuple"
        }
      ],
      "stateMutability": "view",
      "type": "function",
      "constant": true
    },
    {
      "inputs": [],
      "name": "getUser",
      "outputs": [
        {
          "components": [
            {
              "internalType": "string",
              "name": "name",
              "type": "string"
            },
            {
              "internalType": "uint256",
              "name": "balance",
              "type": "uint256"
            },
            {
              "internalType": "uint256",
              "name": "memberType",
              "type": "uint256"
            },
            {
              "internalType": "uint256",
              "name": "rating",
              "type": "uint256"
            },
            {
              "internalType": "uint256",
              "name": "supscriptionCount",
              "type": "uint256"
            }
          ],
          "internalType": "struct Sankalp.user",
          "name": "",
          "type": "tuple"
        }
      ],
      "stateMutability": "view",
      "type": "function",
      "constant": true
    },
    {
      "inputs": [
        {
          "internalType": "string",
          "name": "uid",
          "type": "string"
        },
        {
          "internalType": "string",
          "name": "packageName",
          "type": "string"
        },
        {
          "internalType": "string",
          "name": "description",
          "type": "string"
        },
        {
          "internalType": "string",
          "name": "bodyType",
          "type": "string"
        },
        {
          "internalType": "string",
          "name": "diet",
          "type": "string"
        },
        {
          "internalType": "string",
          "name": "reps",
          "type": "string"
        },
        {
          "internalType": "uint256",
          "name": "sellCost",
          "type": "uint256"
        },
        {
          "internalType": "uint256",
          "name": "rentCost",
          "type": "uint256"
        }
      ],
      "name": "addWorkoutPackage",
      "outputs": [],
      "stateMutability": "payable",
      "type": "function",
      "payable": true
    },
    {
      "inputs": [
        {
          "internalType": "uint256",
          "name": "rating",
          "type": "uint256"
        },
        {
          "internalType": "string",
          "name": "uid",
          "type": "string"
        }
      ],
      "name": "modifyRating",
      "outputs": [],
      "stateMutability": "nonpayable",
      "type": "function"
    },
    {
      "inputs": [
        {
          "internalType": "string",
          "name": "uid",
          "type": "string"
        },
        {
          "internalType": "bool",
          "name": "isBuy",
          "type": "bool"
        }
      ],
      "name": "ownershipTransfer",
      "outputs": [
        {
          "internalType": "uint256",
          "name": "",
          "type": "uint256"
        }
      ],
      "stateMutability": "payable",
      "type": "function",
      "payable": true
    }
  ],
  "bytecode": "0x6080604052336000806101000a81548173ffffffffffffffffffffffffffffffffffffffff021916908373ffffffffffffffffffffffffffffffffffffffff16021790555034600160003373ffffffffffffffffffffffffffffffffffffffff1673ffffffffffffffffffffffffffffffffffffffff168152602001908152602001600020600101819055506003600160003373ffffffffffffffffffffffffffffffffffffffff1673ffffffffffffffffffffffffffffffffffffffff168152602001908152602001600020600201819055506124da806100e26000396000f3fe6080604052600436106100705760003560e01c80635a2da9691161004e5780635a2da969146100f75780637099ad4e14610127578063832880e714610152578063fc623a741461017d57610070565b806302f5eb41146100755780631c57333e1461009e5780634aaf4a12146100ba575b600080fd5b34801561008157600080fd5b5061009c6004803603810190610097919061191e565b610199565b005b6100b860048036038101906100b3919061191e565b6104cb565b005b3480156100c657600080fd5b506100e160048036038101906100dc919061197a565b61063f565b6040516100ee9190611ad0565b60405180910390f35b610111600480360381019061010c9190611b2a565b610790565b60405161011e9190611b95565b60405180910390f35b34801561013357600080fd5b5061013c610c9e565b6040516101499190611d7e565b60405180910390f35b34801561015e57600080fd5b506101676110a3565b6040516101749190611ad0565b60405180910390f35b61019760048036038101906101929190611da0565b6111b4565b005b600280600160003373ffffffffffffffffffffffffffffffffffffffff1673ffffffffffffffffffffffffffffffffffffffff16815260200190815260200160002060020154146101e957600080fd5b60018060006002856040516101fe9190611f3a565b908152602001604051809103902060009054906101000a900473ffffffffffffffffffffffffffffffffffffffff1673ffffffffffffffffffffffffffffffffffffffff1673ffffffffffffffffffffffffffffffffffffffff16815260200190815260200160002060040160008282546102799190611f80565b9250508190555082600160006002856040516102959190611f3a565b908152602001604051809103902060009054906101000a900473ffffffffffffffffffffffffffffffffffffffff1673ffffffffffffffffffffffffffffffffffffffff1673ffffffffffffffffffffffffffffffffffffffff16815260200190815260200160002060030181905550600160006002846040516103199190611f3a565b908152602001604051809103902060009054906101000a900473ffffffffffffffffffffffffffffffffffffffff1673ffffffffffffffffffffffffffffffffffffffff1673ffffffffffffffffffffffffffffffffffffffff168152602001908152602001600020600301546003836040516103969190611f3a565b90815260200160405180910390206008018190555060005b6004805490508110156104c5578280519060200120600482815481106103d7576103d6611fd6565b5b90600052602060002090600a02016000016040516103f59190612105565b604051809103902014156104b257600160006002856040516104179190611f3a565b908152602001604051809103902060009054906101000a900473ffffffffffffffffffffffffffffffffffffffff1673ffffffffffffffffffffffffffffffffffffffff1673ffffffffffffffffffffffffffffffffffffffff168152602001908152602001600020600301546004828154811061049857610497611fd6565b5b90600052602060002090600a0201600801819055506104c5565b80806104bd9061211c565b9150506103ae565b50505050565b6000341161050e576040517f08c379a0000000000000000000000000000000000000000000000000000000008152600401610505906121e8565b60405180910390fd5b34600160003373ffffffffffffffffffffffffffffffffffffffff1673ffffffffffffffffffffffffffffffffffffffff1681526020019081526020016000206001018190555081600160003373ffffffffffffffffffffffffffffffffffffffff1673ffffffffffffffffffffffffffffffffffffffff1681526020019081526020016000206002018190555080600160003373ffffffffffffffffffffffffffffffffffffffff1673ffffffffffffffffffffffffffffffffffffffff16815260200190815260200160002060000190805190602001906105f29291906116bc565b506000600160003373ffffffffffffffffffffffffffffffffffffffff1673ffffffffffffffffffffffffffffffffffffffff168152602001908152602001600020600301819055505050565b610647611742565b6001600060028460405161065b9190611f3a565b908152602001604051809103902060009054906101000a900473ffffffffffffffffffffffffffffffffffffffff1673ffffffffffffffffffffffffffffffffffffffff1673ffffffffffffffffffffffffffffffffffffffff1681526020019081526020016000206040518060a00160405290816000820180546106df90612034565b80601f016020809104026020016040519081016040528092919081815260200182805461070b90612034565b80156107585780601f1061072d57610100808354040283529160200191610758565b820191906000526020600020905b81548152906001019060200180831161073b57829003601f168201915b505050505081526020016001820154815260200160028201548152602001600382015481526020016004820154815250509050919050565b6000806002846040516107a39190611f3a565b908152602001604051809103902060009054906101000a900473ffffffffffffffffffffffffffffffffffffffff1690508215610a5c57336002856040516107eb9190611f3a565b908152602001604051809103902060006101000a81548173ffffffffffffffffffffffffffffffffffffffff021916908373ffffffffffffffffffffffffffffffffffffffff1602179055506003846040516108479190611f3a565b908152602001604051809103902060060154600160003373ffffffffffffffffffffffffffffffffffffffff1673ffffffffffffffffffffffffffffffffffffffff1681526020019081526020016000206001015410156108dd576040517f08c379a00000000000000000000000000000000000000000000000000000000081526004016108d490612254565b60405180910390fd5b6003846040516108ed9190611f3a565b908152602001604051809103902060060154600160008373ffffffffffffffffffffffffffffffffffffffff1673ffffffffffffffffffffffffffffffffffffffff16815260200190815260200160002060010160008282546109509190611f80565b925050819055506003846040516109679190611f3a565b908152602001604051809103902060060154600160003373ffffffffffffffffffffffffffffffffffffffff1673ffffffffffffffffffffffffffffffffffffffff16815260200190815260200160002060010160008282546109ca9190612274565b925050819055508073ffffffffffffffffffffffffffffffffffffffff163373ffffffffffffffffffffffffffffffffffffffff167fddf252ad1be2c89b69c2b068fc378daa952ba7f163c4a11628f55a4df523b3ef600387604051610a309190611f3a565b908152602001604051809103902060060154604051610a4f9190611b95565b60405180910390a3610c7d565b600384604051610a6c9190611f3a565b908152602001604051809103902060070154600160003373ffffffffffffffffffffffffffffffffffffffff1673ffffffffffffffffffffffffffffffffffffffff168152602001908152602001600020600101541015610b02576040517f08c379a0000000000000000000000000000000000000000000000000000000008152600401610af990612254565b60405180910390fd5b600384604051610b129190611f3a565b908152602001604051809103902060070154600160008373ffffffffffffffffffffffffffffffffffffffff1673ffffffffffffffffffffffffffffffffffffffff1681526020019081526020016000206001016000828254610b759190611f80565b92505081905550600384604051610b8c9190611f3a565b908152602001604051809103902060070154600160003373ffffffffffffffffffffffffffffffffffffffff1673ffffffffffffffffffffffffffffffffffffffff1681526020019081526020016000206001016000828254610bef9190612274565b925050819055508073ffffffffffffffffffffffffffffffffffffffff163373ffffffffffffffffffffffffffffffffffffffff167fddf252ad1be2c89b69c2b068fc378daa952ba7f163c4a11628f55a4df523b3ef600387604051610c559190611f3a565b908152602001604051809103902060070154604051610c749190611b95565b60405180910390a35b3373ffffffffffffffffffffffffffffffffffffffff163191505092915050565b60606004805480602002602001604051908101604052809291908181526020016000905b8282101561109a57838290600052602060002090600a020160405180610140016040529081600082018054610cf690612034565b80601f0160208091040260200160405190810160405280929190818152602001828054610d2290612034565b8015610d6f5780601f10610d4457610100808354040283529160200191610d6f565b820191906000526020600020905b815481529060010190602001808311610d5257829003601f168201915b50505050508152602001600182018054610d8890612034565b80601f0160208091040260200160405190810160405280929190818152602001828054610db490612034565b8015610e015780601f10610dd657610100808354040283529160200191610e01565b820191906000526020600020905b815481529060010190602001808311610de457829003601f168201915b50505050508152602001600282018054610e1a90612034565b80601f0160208091040260200160405190810160405280929190818152602001828054610e4690612034565b8015610e935780601f10610e6857610100808354040283529160200191610e93565b820191906000526020600020905b815481529060010190602001808311610e7657829003601f168201915b50505050508152602001600382018054610eac90612034565b80601f0160208091040260200160405190810160405280929190818152602001828054610ed890612034565b8015610f255780601f10610efa57610100808354040283529160200191610f25565b820191906000526020600020905b815481529060010190602001808311610f0857829003601f168201915b50505050508152602001600482018054610f3e90612034565b80601f0160208091040260200160405190810160405280929190818152602001828054610f6a90612034565b8015610fb75780601f10610f8c57610100808354040283529160200191610fb7565b820191906000526020600020905b815481529060010190602001808311610f9a57829003601f168201915b50505050508152602001600582018054610fd090612034565b80601f0160208091040260200160405190810160405280929190818152602001828054610ffc90612034565b80156110495780601f1061101e57610100808354040283529160200191611049565b820191906000526020600020905b81548152906001019060200180831161102c57829003601f168201915b505050505081526020016006820154815260200160078201548152602001600882015481526020016009820160009054906101000a900460ff16151515158152505081526020019060010190610cc2565b50505050905090565b6110ab611742565b600160003373ffffffffffffffffffffffffffffffffffffffff1673ffffffffffffffffffffffffffffffffffffffff1681526020019081526020016000206040518060a001604052908160008201805461110590612034565b80601f016020809104026020016040519081016040528092919081815260200182805461113190612034565b801561117e5780601f106111535761010080835404028352916020019161117e565b820191906000526020600020905b81548152906001019060200180831161116157829003601f168201915b50505050508152602001600182015481526020016002820154815260200160038201548152602001600482015481525050905090565b600180600160003373ffffffffffffffffffffffffffffffffffffffff1673ffffffffffffffffffffffffffffffffffffffff168152602001908152602001600020600201541461120457600080fd5b6000895111611248576040517f08c379a000000000000000000000000000000000000000000000000000000000815260040161123f9061231a565b60405180910390fd5b600085511161128c576040517f08c379a000000000000000000000000000000000000000000000000000000000815260040161128390612386565b60405180910390fd5b60008451116112d0576040517f08c379a00000000000000000000000000000000000000000000000000000000081526004016112c7906123f2565b60405180910390fd5b6000865111611314576040517f08c379a000000000000000000000000000000000000000000000000000000000815260040161130b90612484565b60405180910390fd5b3360028a6040516113259190611f3a565b908152602001604051809103902060006101000a81548173ffffffffffffffffffffffffffffffffffffffff021916908373ffffffffffffffffffffffffffffffffffffffff1602179055506040518061014001604052808a8152602001898152602001888152602001878152602001868152602001858152602001848152602001838152602001600160003373ffffffffffffffffffffffffffffffffffffffff1673ffffffffffffffffffffffffffffffffffffffff1681526020019081526020016000206003015481526020016000151581525060038a60405161140c9190611f3a565b908152602001604051809103902060008201518160000190805190602001906114369291906116bc565b5060208201518160010190805190602001906114539291906116bc565b5060408201518160020190805190602001906114709291906116bc565b50606082015181600301908051906020019061148d9291906116bc565b5060808201518160040190805190602001906114aa9291906116bc565b5060a08201518160050190805190602001906114c79291906116bc565b5060c0820151816006015560e0820151816007015561010082015181600801556101208201518160090160006101000a81548160ff02191690831515021790555090505060046040518061014001604052808b81526020018a8152602001898152602001888152602001878152602001868152602001858152602001848152602001600160003373ffffffffffffffffffffffffffffffffffffffff1673ffffffffffffffffffffffffffffffffffffffff1681526020019081526020016000206003015481526020016000151581525090806001815401808255809150506001900390600052602060002090600a020160009091909190915060008201518160000190805190602001906115dd9291906116bc565b5060208201518160010190805190602001906115fa9291906116bc565b5060408201518160020190805190602001906116179291906116bc565b5060608201518160030190805190602001906116349291906116bc565b5060808201518160040190805190602001906116519291906116bc565b5060a082015181600501908051906020019061166e9291906116bc565b5060c0820151816006015560e0820151816007015561010082015181600801556101208201518160090160006101000a81548160ff0219169083151502179055505050505050505050505050565b8280546116c890612034565b90600052602060002090601f0160209004810192826116ea5760008555611731565b82601f1061170357805160ff1916838001178555611731565b82800160010185558215611731579182015b82811115611730578251825591602001919060010190611715565b5b50905061173e9190611771565b5090565b6040518060a0016040528060608152602001600081526020016000815260200160008152602001600081525090565b5b8082111561178a576000816000905550600101611772565b5090565b6000604051905090565b600080fd5b600080fd5b6000819050919050565b6117b5816117a2565b81146117c057600080fd5b50565b6000813590506117d2816117ac565b92915050565b600080fd5b600080fd5b6000601f19601f8301169050919050565b7f4e487b7100000000000000000000000000000000000000000000000000000000600052604160045260246000fd5b61182b826117e2565b810181811067ffffffffffffffff8211171561184a576118496117f3565b5b80604052505050565b600061185d61178e565b90506118698282611822565b919050565b600067ffffffffffffffff821115611889576118886117f3565b5b611892826117e2565b9050602081019050919050565b82818337600083830152505050565b60006118c16118bc8461186e565b611853565b9050828152602081018484840111156118dd576118dc6117dd565b5b6118e884828561189f565b509392505050565b600082601f830112611905576119046117d8565b5b81356119158482602086016118ae565b91505092915050565b6000806040838503121561193557611934611798565b5b6000611943858286016117c3565b925050602083013567ffffffffffffffff8111156119645761196361179d565b5b611970858286016118f0565b9150509250929050565b6000602082840312156119905761198f611798565b5b600082013567ffffffffffffffff8111156119ae576119ad61179d565b5b6119ba848285016118f0565b91505092915050565b600081519050919050565b600082825260208201905092915050565b60005b838110156119fd5780820151818401526020810190506119e2565b83811115611a0c576000848401525b50505050565b6000611a1d826119c3565b611a2781856119ce565b9350611a378185602086016119df565b611a40816117e2565b840191505092915050565b611a54816117a2565b82525050565b600060a0830160008301518482036000860152611a778282611a12565b9150506020830151611a8c6020860182611a4b565b506040830151611a9f6040860182611a4b565b506060830151611ab26060860182611a4b565b506080830151611ac56080860182611a4b565b508091505092915050565b60006020820190508181036000830152611aea8184611a5a565b905092915050565b60008115159050919050565b611b0781611af2565b8114611b1257600080fd5b50565b600081359050611b2481611afe565b92915050565b60008060408385031215611b4157611b40611798565b5b600083013567ffffffffffffffff811115611b5f57611b5e61179d565b5b611b6b858286016118f0565b9250506020611b7c85828601611b15565b9150509250929050565b611b8f816117a2565b82525050565b6000602082019050611baa6000830184611b86565b92915050565b600081519050919050565b600082825260208201905092915050565b6000819050602082019050919050565b611be581611af2565b82525050565b6000610140830160008301518482036000860152611c098282611a12565b91505060208301518482036020860152611c238282611a12565b91505060408301518482036040860152611c3d8282611a12565b91505060608301518482036060860152611c578282611a12565b91505060808301518482036080860152611c718282611a12565b91505060a083015184820360a0860152611c8b8282611a12565b91505060c0830151611ca060c0860182611a4b565b5060e0830151611cb360e0860182611a4b565b50610100830151611cc8610100860182611a4b565b50610120830151611cdd610120860182611bdc565b508091505092915050565b6000611cf48383611beb565b905092915050565b6000602082019050919050565b6000611d1482611bb0565b611d1e8185611bbb565b935083602082028501611d3085611bcc565b8060005b85811015611d6c5784840389528151611d4d8582611ce8565b9450611d5883611cfc565b925060208a01995050600181019050611d34565b50829750879550505050505092915050565b60006020820190508181036000830152611d988184611d09565b905092915050565b600080600080600080600080610100898b031215611dc157611dc0611798565b5b600089013567ffffffffffffffff811115611ddf57611dde61179d565b5b611deb8b828c016118f0565b985050602089013567ffffffffffffffff811115611e0c57611e0b61179d565b5b611e188b828c016118f0565b975050604089013567ffffffffffffffff811115611e3957611e3861179d565b5b611e458b828c016118f0565b965050606089013567ffffffffffffffff811115611e6657611e6561179d565b5b611e728b828c016118f0565b955050608089013567ffffffffffffffff811115611e9357611e9261179d565b5b611e9f8b828c016118f0565b94505060a089013567ffffffffffffffff811115611ec057611ebf61179d565b5b611ecc8b828c016118f0565b93505060c0611edd8b828c016117c3565b92505060e0611eee8b828c016117c3565b9150509295985092959890939650565b600081905092915050565b6000611f14826119c3565b611f1e8185611efe565b9350611f2e8185602086016119df565b80840191505092915050565b6000611f468284611f09565b915081905092915050565b7f4e487b7100000000000000000000000000000000000000000000000000000000600052601160045260246000fd5b6000611f8b826117a2565b9150611f96836117a2565b9250827fffffffffffffffffffffffffffffffffffffffffffffffffffffffffffffffff03821115611fcb57611fca611f51565b5b828201905092915050565b7f4e487b7100000000000000000000000000000000000000000000000000000000600052603260045260246000fd5b7f4e487b7100000000000000000000000000000000000000000000000000000000600052602260045260246000fd5b6000600282049050600182168061204c57607f821691505b602082108114156120605761205f612005565b5b50919050565b600081905092915050565b60008190508160005260206000209050919050565b6000815461209381612034565b61209d8186612066565b945060018216600081146120b857600181146120c9576120fc565b60ff198316865281860193506120fc565b6120d285612071565b60005b838110156120f4578154818901526001820191506020810190506120d5565b838801955050505b50505092915050565b60006121118284612086565b915081905092915050565b6000612127826117a2565b91507fffffffffffffffffffffffffffffffffffffffffffffffffffffffffffffffff82141561215a57612159611f51565b5b600182019050919050565b600082825260208201905092915050565b7f4d696e696d756d2062616c616e63652073686f756c64206265206d6f7265207460008201527f68616e2030000000000000000000000000000000000000000000000000000000602082015250565b60006121d2602583612165565b91506121dd82612176565b604082019050919050565b60006020820190508181036000830152612201816121c5565b9050919050565b7f496e73756666696369656e742042616c616e6365000000000000000000000000600082015250565b600061223e601483612165565b915061224982612208565b602082019050919050565b6000602082019050818103600083015261226d81612231565b9050919050565b600061227f826117a2565b915061228a836117a2565b92508282101561229d5761229c611f51565b5b828203905092915050565b7f556e69717565206964206e656564656420746f20726567697374657220776f7260008201527f6b6f757400000000000000000000000000000000000000000000000000000000602082015250565b6000612304602483612165565b915061230f826122a8565b604082019050919050565b60006020820190508181036000830152612333816122f7565b9050919050565b7f44696574206e656564656420746f20726567697374657220776f726b6f757400600082015250565b6000612370601f83612165565b915061237b8261233a565b602082019050919050565b6000602082019050818103600083015261239f81612363565b9050919050565b7f52657073206e656564656420746f20726567697374657220776f726b6f757400600082015250565b60006123dc601f83612165565b91506123e7826123a6565b602082019050919050565b6000602082019050818103600083015261240b816123cf565b9050919050565b7f426f64792054797065206e656564656420746f20726567697374657220776f7260008201527f6b6f757400000000000000000000000000000000000000000000000000000000602082015250565b600061246e602483612165565b915061247982612412565b604082019050919050565b6000602082019050818103600083015261249d81612461565b905091905056fea2646970667358221220cff46d14b8e2c2cf194fd89e647875a894dfb7f3ac751c2000816a3085a6fecd64736f6c634300080c0033",
  "immutableReferences": {},
  "source": "//SPDX-License-Identifier: UNLICENSED\npragma solidity ^0.8.12;\n\n\n\ncontract Sankalp {\n\n    address admin;\n\n    struct user{\n        string name;\n        uint balance;\n        uint memberType;\n        uint rating;\n        uint supscriptionCount;\n    }\n\n\n    struct workoutPackage{\n        string uid;\n        string packageName;\n        string description;\n        string bodyType;\n        string diet;\n        string reps;\n        uint  sellCost;\n        uint rentCost;\n        uint UserRating;\n        bool deleted;\n    }\n\n   mapping(address => user) users;\n   mapping(string => address) owners ;\n   mapping(string => workoutPackage) workoutPackageMapping;\n   workoutPackage[] listOfWorkouts;\n  \n   event Transfer(address indexed from, address indexed to, uint cost);\n\n\n    modifier isBalancePresent(){\n        require(msg.value > 0,\"Minimum balance should be more than 0\");\n        _;\n    }\n\n    modifier isEligible(uint member){\n        require(users[msg.sender].memberType == member);\n        _;\n    }\n\n   constructor() payable {  \n       admin = msg.sender;\n       users[msg.sender].balance = msg.value;\n       users[msg.sender].memberType = 3;\n    }  \n\n\n    function registerUser(uint memberType, string memory name) isBalancePresent public payable {  \n       users[msg.sender].balance = msg.value;\n       users[msg.sender].memberType = memberType;\n       users[msg.sender].name = name;\n       users[msg.sender].rating = 0;\n    }  \n    \n    function getAllWorkouts() view public returns(workoutPackage[] memory){\n       return listOfWorkouts;\n    }\n\n    function getOwner(string memory id) view public returns(user memory){\n       return users[owners[id]];\n    }\n\n    function getUser() view public returns(user memory){\n       return users[msg.sender];\n    }\n\n\n    function addWorkoutPackage(string memory uid, string memory packageName,string memory description, string memory bodyType, string memory diet, string memory reps, uint sellCost, uint rentCost) isEligible(1) payable public {\n        require(bytes(uid).length > 0, \"Unique id needed to register workout\");\n        require(bytes(diet).length > 0, \"Diet needed to register workout\");\n        require(bytes(reps).length > 0, \"Reps needed to register workout\");\n        require(bytes(bodyType).length > 0, \"Body Type needed to register workout\");\n        owners[uid] = msg.sender;\n        workoutPackageMapping[uid] = workoutPackage(uid, packageName,description,bodyType, diet, reps, sellCost, rentCost, users[msg.sender].rating, false);\n\n        listOfWorkouts.push(workoutPackage(uid, packageName,description, bodyType, diet, reps, sellCost, rentCost,users[msg.sender].rating, false));\n    }\n\n    function modifyRating(uint rating, string memory uid) public isEligible(2){\n        users[owners[uid]].supscriptionCount += 1;\n        users[owners[uid]].rating = rating;\n\n        workoutPackageMapping[uid].UserRating = users[owners[uid]].rating;\n            for (uint i = 0; i < listOfWorkouts.length; i ++ ){\n                if (keccak256(bytes(listOfWorkouts[i].uid)) == keccak256(bytes(uid))){\n                listOfWorkouts[i].UserRating = users[owners[uid]].rating;\n                break;\n            }\n        }\n    }\n\n    function ownershipTransfer(string memory uid, bool isBuy) public payable returns (uint){\n  \n        address payable seller = payable(owners[uid]);\n       \n        \n        if(isBuy){\n            owners[uid] = msg.sender;\n            require(users[msg.sender].balance >= workoutPackageMapping[uid].sellCost,\"Insufficient Balance\");\n            users[seller].balance += workoutPackageMapping[uid].sellCost;\n            users[msg.sender].balance -= workoutPackageMapping[uid].sellCost;\n        \n             emit Transfer(msg.sender, seller, workoutPackageMapping[uid].sellCost);\n\n        //     for (uint i = 0; i < listOfWorkouts.length; i ++ ){\n        //         if (keccak256(bytes(listOfWorkouts[i].uid)) == keccak256(bytes(uid))){\n        //         delete listOfWorkouts[i];\n        //         break;\n        //     }\n        //   } \n        }\n\n        else{\n            require(users[msg.sender].balance >= workoutPackageMapping[uid].rentCost,\"Insufficient Balance\");\n            users[seller].balance += workoutPackageMapping[uid].rentCost;\n            users[msg.sender].balance -= workoutPackageMapping[uid].rentCost;\n             emit Transfer(msg.sender, seller, workoutPackageMapping[uid].rentCost);\n        \n        }\n       \n        return msg.sender.balance;  \n    }\n}",
  "sourcePath": "/Users/rahulshahi/Documents/personal/repository/Blockchain-project/contracts/sankalp.sol",
  "compiler": {
    "name": "solc",
    "version": "0.8.12+commit.f00d7308.Emscripten.clang"
  },
  "schemaVersion": "3.4.6",
  "updatedAt": "2022-04-12T21:56:53.037Z",
  "networkType": "ethereum",
  "devdoc": {
    "kind": "dev",
    "methods": {},
    "version": 1
  },
  "userdoc": {
    "kind": "user",
    "methods": {},
    "version": 1
  }
}