{
  "contractName": "Sankalp",
  "abi": [
    {
      "inputs": [],
      "stateMutability": "payable",
      "type": "constructor",
      "payable": true
    },
    {
      "anonymous": false,
      "inputs": [
        {
          "indexed": true,
          "internalType": "address",
          "name": "from",
          "type": "address"
        },
        {
          "indexed": true,
          "internalType": "address",
          "name": "to",
          "type": "address"
        },
        {
          "indexed": false,
          "internalType": "uint256",
          "name": "cost",
          "type": "uint256"
        }
      ],
      "name": "Transfer",
      "type": "event"
    },
    {
      "inputs": [],
      "name": "contract_Add",
      "outputs": [
        {
          "internalType": "address",
          "name": "",
          "type": "address"
        }
      ],
      "stateMutability": "view",
      "type": "function",
      "constant": true
    },
    {
      "inputs": [
        {
          "internalType": "uint256",
          "name": "memberType",
          "type": "uint256"
        },
        {
          "internalType": "string",
          "name": "name",
          "type": "string"
        }
      ],
      "name": "registerUser",
      "outputs": [],
      "stateMutability": "payable",
      "type": "function",
      "payable": true
    },
    {
      "inputs": [],
      "name": "getAllWorkouts",
      "outputs": [
        {
          "components": [
            {
              "internalType": "string",
              "name": "uid",
              "type": "string"
            },
            {
              "internalType": "string",
              "name": "packageName",
              "type": "string"
            },
            {
              "internalType": "string",
              "name": "description",
              "type": "string"
            },
            {
              "internalType": "string",
              "name": "bodyType",
              "type": "string"
            },
            {
              "internalType": "string",
              "name": "diet",
              "type": "string"
            },
            {
              "internalType": "string",
              "name": "reps",
              "type": "string"
            },
            {
              "internalType": "uint256",
              "name": "sellCost",
              "type": "uint256"
            },
            {
              "internalType": "uint256",
              "name": "rentCost",
              "type": "uint256"
            },
            {
              "internalType": "uint256",
              "name": "UserRating",
              "type": "uint256"
            },
            {
              "internalType": "bool",
              "name": "deleted",
              "type": "bool"
            }
          ],
          "internalType": "struct Sankalp.workoutPackage[]",
          "name": "",
          "type": "tuple[]"
        }
      ],
      "stateMutability": "view",
      "type": "function",
      "constant": true
    },
    {
      "inputs": [
        {
          "internalType": "string",
          "name": "id",
          "type": "string"
        }
      ],
      "name": "getOwner",
      "outputs": [
        {
          "components": [
            {
              "internalType": "string",
              "name": "name",
              "type": "string"
            },
            {
              "internalType": "uint256",
              "name": "balance",
              "type": "uint256"
            },
            {
              "internalType": "uint256",
              "name": "memberType",
              "type": "uint256"
            },
            {
              "internalType": "uint256",
              "name": "rating",
              "type": "uint256"
            },
            {
              "internalType": "uint256",
              "name": "supscriptionCount",
              "type": "uint256"
            }
          ],
          "internalType": "struct Sankalp.user",
          "name": "",
          "type": "tuple"
        }
      ],
      "stateMutability": "view",
      "type": "function",
      "constant": true
    },
    {
      "inputs": [],
      "name": "getUser",
      "outputs": [
        {
          "components": [
            {
              "internalType": "string",
              "name": "name",
              "type": "string"
            },
            {
              "internalType": "uint256",
              "name": "balance",
              "type": "uint256"
            },
            {
              "internalType": "uint256",
              "name": "memberType",
              "type": "uint256"
            },
            {
              "internalType": "uint256",
              "name": "rating",
              "type": "uint256"
            },
            {
              "internalType": "uint256",
              "name": "supscriptionCount",
              "type": "uint256"
            }
          ],
          "internalType": "struct Sankalp.user",
          "name": "",
          "type": "tuple"
        }
      ],
      "stateMutability": "view",
      "type": "function",
      "constant": true
    },
    {
      "inputs": [],
      "name": "getBalance",
      "outputs": [
        {
          "internalType": "uint256",
          "name": "",
          "type": "uint256"
        }
      ],
      "stateMutability": "view",
      "type": "function",
      "constant": true
    },
    {
      "inputs": [],
      "name": "checkOwner",
      "outputs": [
        {
          "internalType": "bool",
          "name": "",
          "type": "bool"
        }
      ],
      "stateMutability": "view",
      "type": "function",
      "constant": true
    },
    {
      "inputs": [
        {
          "internalType": "address",
          "name": "receiver",
          "type": "address"
        },
        {
          "internalType": "uint256",
          "name": "amount",
          "type": "uint256"
        }
      ],
      "name": "airDrop",
      "outputs": [],
      "stateMutability": "payable",
      "type": "function",
      "payable": true
    },
    {
      "inputs": [
        {
          "internalType": "uint256",
          "name": "approvedAmt",
          "type": "uint256"
        }
      ],
      "name": "approval",
      "outputs": [],
      "stateMutability": "nonpayable",
      "type": "function"
    },
    {
      "inputs": [],
      "name": "checkAllowance",
      "outputs": [
        {
          "internalType": "uint256",
          "name": "",
          "type": "uint256"
        }
      ],
      "stateMutability": "view",
      "type": "function",
      "constant": true
    },
    {
      "inputs": [
        {
          "internalType": "string",
          "name": "uid",
          "type": "string"
        },
        {
          "internalType": "string",
          "name": "packageName",
          "type": "string"
        },
        {
          "internalType": "string",
          "name": "description",
          "type": "string"
        },
        {
          "internalType": "string",
          "name": "bodyType",
          "type": "string"
        },
        {
          "internalType": "string",
          "name": "diet",
          "type": "string"
        },
        {
          "internalType": "string",
          "name": "reps",
          "type": "string"
        },
        {
          "internalType": "uint256",
          "name": "sellCost",
          "type": "uint256"
        },
        {
          "internalType": "uint256",
          "name": "rentCost",
          "type": "uint256"
        }
      ],
      "name": "addWorkoutPackage",
      "outputs": [],
      "stateMutability": "payable",
      "type": "function",
      "payable": true
    },
    {
      "inputs": [
        {
          "internalType": "uint256",
          "name": "rating",
          "type": "uint256"
        },
        {
          "internalType": "string",
          "name": "uid",
          "type": "string"
        }
      ],
      "name": "modifyRating",
      "outputs": [],
      "stateMutability": "nonpayable",
      "type": "function"
    },
    {
      "inputs": [
        {
          "internalType": "string",
          "name": "uid",
          "type": "string"
        },
        {
          "internalType": "bool",
          "name": "isBuy",
          "type": "bool"
        }
      ],
      "name": "ownershipTransfer",
      "outputs": [
        {
          "internalType": "uint256",
          "name": "",
          "type": "uint256"
        }
      ],
      "stateMutability": "payable",
      "type": "function",
      "payable": true
    }
  ],
  "bytecode": "0x6080604052737fb5d1fcd51fe40de06951d700a9f109671990b0600560006101000a81548173ffffffffffffffffffffffffffffffffffffffff021916908373ffffffffffffffffffffffffffffffffffffffff160217905550336000806101000a81548173ffffffffffffffffffffffffffffffffffffffff021916908373ffffffffffffffffffffffffffffffffffffffff16021790555034600160003373ffffffffffffffffffffffffffffffffffffffff1673ffffffffffffffffffffffffffffffffffffffff1681526020019081526020016000206001018190555060018060003373ffffffffffffffffffffffffffffffffffffffff1673ffffffffffffffffffffffffffffffffffffffff16815260200190815260200160002060020181905550612a33806101366000396000f3fe6080604052600436106100c25760003560e01c80635a2da9691161007f578063832880e711610059578063832880e71461023f5780639405de641461026a578063cdbce03d14610295578063fc623a74146102c0576100c2565b80635a2da969146101b95780636d591e34146101e95780637099ad4e14610214576100c2565b806302f5eb41146100c7578063045f7850146100f057806312065fe01461010c5780631c57333e146101375780633052ea08146101535780634aaf4a121461017c575b600080fd5b3480156100d357600080fd5b506100ee60048036038101906100e99190611c96565b6102dc565b005b61010a60048036038101906101059190611d50565b61065f565b005b34801561011857600080fd5b50610121610726565b60405161012e9190611d9f565b60405180910390f35b610151600480360381019061014c9190611c96565b6107c9565b005b34801561015f57600080fd5b5061017a60048036038101906101759190611dba565b6108b3565b005b34801561018857600080fd5b506101a3600480360381019061019e9190611de7565b610959565b6040516101b09190611f3d565b60405180910390f35b6101d360048036038101906101ce9190611f97565b610aaa565b6040516101e09190611d9f565b60405180910390f35b3480156101f557600080fd5b506101fe610f02565b60405161020b9190612002565b60405180910390f35b34801561022057600080fd5b50610229610f1a565b60405161023691906121eb565b60405180910390f35b34801561024b57600080fd5b5061025461131f565b6040516102619190611f3d565b60405180910390f35b34801561027657600080fd5b5061027f611430565b60405161028c9190611d9f565b60405180910390f35b3480156102a157600080fd5b506102aa6114d5565b6040516102b7919061221c565b60405180910390f35b6102da60048036038101906102d59190612237565b61152c565b005b600280600160003373ffffffffffffffffffffffffffffffffffffffff1673ffffffffffffffffffffffffffffffffffffffff168152602001908152602001600020600201541461032c57600080fd5b600180600160003373ffffffffffffffffffffffffffffffffffffffff1673ffffffffffffffffffffffffffffffffffffffff168152602001908152602001600020600201541461037c57600080fd5b600180600060028660405161039191906123d1565b908152602001604051809103902060009054906101000a900473ffffffffffffffffffffffffffffffffffffffff1673ffffffffffffffffffffffffffffffffffffffff1673ffffffffffffffffffffffffffffffffffffffff168152602001908152602001600020600401600082825461040c9190612417565b92505081905550836001600060028660405161042891906123d1565b908152602001604051809103902060009054906101000a900473ffffffffffffffffffffffffffffffffffffffff1673ffffffffffffffffffffffffffffffffffffffff1673ffffffffffffffffffffffffffffffffffffffff16815260200190815260200160002060030181905550600160006002856040516104ac91906123d1565b908152602001604051809103902060009054906101000a900473ffffffffffffffffffffffffffffffffffffffff1673ffffffffffffffffffffffffffffffffffffffff1673ffffffffffffffffffffffffffffffffffffffff1681526020019081526020016000206003015460038460405161052991906123d1565b90815260200160405180910390206008018190555060005b6004805490508110156106585783805190602001206004828154811061056a5761056961246d565b5b90600052602060002090600a0201600001604051610588919061259c565b6040518091039020141561064557600160006002866040516105aa91906123d1565b908152602001604051809103902060009054906101000a900473ffffffffffffffffffffffffffffffffffffffff1673ffffffffffffffffffffffffffffffffffffffff1673ffffffffffffffffffffffffffffffffffffffff168152602001908152602001600020600301546004828154811061062b5761062a61246d565b5b90600052602060002090600a020160080181905550610658565b8080610650906125b3565b915050610541565b5050505050565b600560009054906101000a900473ffffffffffffffffffffffffffffffffffffffff1673ffffffffffffffffffffffffffffffffffffffff1663dbba0f01838360008054906101000a900473ffffffffffffffffffffffffffffffffffffffff166040518463ffffffff1660e01b81526004016106de939291906125fc565b6020604051808303816000875af11580156106fd573d6000803e3d6000fd5b505050506040513d601f19601f820116820180604052508101906107219190612648565b505050565b6000600560009054906101000a900473ffffffffffffffffffffffffffffffffffffffff1673ffffffffffffffffffffffffffffffffffffffff166370a08231336040518263ffffffff1660e01b81526004016107839190612002565b602060405180830381865afa1580156107a0573d6000803e3d6000fd5b505050506040513d601f19601f820116820180604052508101906107c4919061268a565b905090565b81600160003373ffffffffffffffffffffffffffffffffffffffff1673ffffffffffffffffffffffffffffffffffffffff1681526020019081526020016000206002018190555080600160003373ffffffffffffffffffffffffffffffffffffffff1673ffffffffffffffffffffffffffffffffffffffff1681526020019081526020016000206000019080519060200190610866929190611a34565b506000600160003373ffffffffffffffffffffffffffffffffffffffff1673ffffffffffffffffffffffffffffffffffffffff168152602001908152602001600020600301819055505050565b600560009054906101000a900473ffffffffffffffffffffffffffffffffffffffff1673ffffffffffffffffffffffffffffffffffffffff16631271f09a3083336040518463ffffffff1660e01b8152600401610912939291906125fc565b6020604051808303816000875af1158015610931573d6000803e3d6000fd5b505050506040513d601f19601f820116820180604052508101906109559190612648565b5050565b610961611aba565b6001600060028460405161097591906123d1565b908152602001604051809103902060009054906101000a900473ffffffffffffffffffffffffffffffffffffffff1673ffffffffffffffffffffffffffffffffffffffff1673ffffffffffffffffffffffffffffffffffffffff1681526020019081526020016000206040518060a00160405290816000820180546109f9906124cb565b80601f0160208091040260200160405190810160405280929190818152602001828054610a25906124cb565b8015610a725780601f10610a4757610100808354040283529160200191610a72565b820191906000526020600020905b815481529060010190602001808311610a5557829003601f168201915b505050505081526020016001820154815260200160028201548152602001600382015481526020016004820154815250509050919050565b600080600284604051610abd91906123d1565b908152602001604051809103902060009054906101000a900473ffffffffffffffffffffffffffffffffffffffff1690508215610d1b5733600285604051610b0591906123d1565b908152602001604051809103902060006101000a81548173ffffffffffffffffffffffffffffffffffffffff021916908373ffffffffffffffffffffffffffffffffffffffff160217905550600384604051610b6191906123d1565b908152602001604051809103902060060154600560009054906101000a900473ffffffffffffffffffffffffffffffffffffffff1673ffffffffffffffffffffffffffffffffffffffff166370a08231336040518263ffffffff1660e01b8152600401610bce9190612002565b602060405180830381865afa158015610beb573d6000803e3d6000fd5b505050506040513d601f19601f82011682018060405250810190610c0f919061268a565b1015610c50576040517f08c379a0000000000000000000000000000000000000000000000000000000008152600401610c4790612714565b60405180910390fd5b600560009054906101000a900473ffffffffffffffffffffffffffffffffffffffff1673ffffffffffffffffffffffffffffffffffffffff16635fc9309c3383600388604051610ca091906123d1565b908152602001604051809103902060060154306040518563ffffffff1660e01b8152600401610cd29493929190612793565b6020604051808303816000875af1158015610cf1573d6000803e3d6000fd5b505050506040513d601f19601f82011682018060405250810190610d159190612648565b50610ee1565b600384604051610d2b91906123d1565b908152602001604051809103902060070154600560009054906101000a900473ffffffffffffffffffffffffffffffffffffffff1673ffffffffffffffffffffffffffffffffffffffff166370a08231336040518263ffffffff1660e01b8152600401610d989190612002565b602060405180830381865afa158015610db5573d6000803e3d6000fd5b505050506040513d601f19601f82011682018060405250810190610dd9919061268a565b1015610e1a576040517f08c379a0000000000000000000000000000000000000000000000000000000008152600401610e1190612714565b60405180910390fd5b600560009054906101000a900473ffffffffffffffffffffffffffffffffffffffff1673ffffffffffffffffffffffffffffffffffffffff16635fc9309c3383600388604051610e6a91906123d1565b908152602001604051809103902060070154306040518563ffffffff1660e01b8152600401610e9c9493929190612793565b6020604051808303816000875af1158015610ebb573d6000803e3d6000fd5b505050506040513d601f19601f82011682018060405250810190610edf9190612648565b505b3373ffffffffffffffffffffffffffffffffffffffff163191505092915050565b737fb5d1fcd51fe40de06951d700a9f109671990b081565b60606004805480602002602001604051908101604052809291908181526020016000905b8282101561131657838290600052602060002090600a020160405180610140016040529081600082018054610f72906124cb565b80601f0160208091040260200160405190810160405280929190818152602001828054610f9e906124cb565b8015610feb5780601f10610fc057610100808354040283529160200191610feb565b820191906000526020600020905b815481529060010190602001808311610fce57829003601f168201915b50505050508152602001600182018054611004906124cb565b80601f0160208091040260200160405190810160405280929190818152602001828054611030906124cb565b801561107d5780601f106110525761010080835404028352916020019161107d565b820191906000526020600020905b81548152906001019060200180831161106057829003601f168201915b50505050508152602001600282018054611096906124cb565b80601f01602080910402602001604051908101604052809291908181526020018280546110c2906124cb565b801561110f5780601f106110e45761010080835404028352916020019161110f565b820191906000526020600020905b8154815290600101906020018083116110f257829003601f168201915b50505050508152602001600382018054611128906124cb565b80601f0160208091040260200160405190810160405280929190818152602001828054611154906124cb565b80156111a15780601f10611176576101008083540402835291602001916111a1565b820191906000526020600020905b81548152906001019060200180831161118457829003601f168201915b505050505081526020016004820180546111ba906124cb565b80601f01602080910402602001604051908101604052809291908181526020018280546111e6906124cb565b80156112335780601f1061120857610100808354040283529160200191611233565b820191906000526020600020905b81548152906001019060200180831161121657829003601f168201915b5050505050815260200160058201805461124c906124cb565b80601f0160208091040260200160405190810160405280929190818152602001828054611278906124cb565b80156112c55780601f1061129a576101008083540402835291602001916112c5565b820191906000526020600020905b8154815290600101906020018083116112a857829003601f168201915b505050505081526020016006820154815260200160078201548152602001600882015481526020016009820160009054906101000a900460ff16151515158152505081526020019060010190610f3e565b50505050905090565b611327611aba565b600160003373ffffffffffffffffffffffffffffffffffffffff1673ffffffffffffffffffffffffffffffffffffffff1681526020019081526020016000206040518060a0016040529081600082018054611381906124cb565b80601f01602080910402602001604051908101604052809291908181526020018280546113ad906124cb565b80156113fa5780601f106113cf576101008083540402835291602001916113fa565b820191906000526020600020905b8154815290600101906020018083116113dd57829003601f168201915b50505050508152602001600182015481526020016002820154815260200160038201548152602001600482015481525050905090565b6000600560009054906101000a900473ffffffffffffffffffffffffffffffffffffffff1673ffffffffffffffffffffffffffffffffffffffff1663dd62ed3e33306040518363ffffffff1660e01b815260040161148f9291906127d8565b602060405180830381865afa1580156114ac573d6000803e3d6000fd5b505050506040513d601f19601f820116820180604052508101906114d0919061268a565b905090565b60008060009054906101000a900473ffffffffffffffffffffffffffffffffffffffff1673ffffffffffffffffffffffffffffffffffffffff163373ffffffffffffffffffffffffffffffffffffffff1614905090565b600180600160003373ffffffffffffffffffffffffffffffffffffffff1673ffffffffffffffffffffffffffffffffffffffff168152602001908152602001600020600201541461157c57600080fd5b60008951116115c0576040517f08c379a00000000000000000000000000000000000000000000000000000000081526004016115b790612873565b60405180910390fd5b6000855111611604576040517f08c379a00000000000000000000000000000000000000000000000000000000081526004016115fb906128df565b60405180910390fd5b6000845111611648576040517f08c379a000000000000000000000000000000000000000000000000000000000815260040161163f9061294b565b60405180910390fd5b600086511161168c576040517f08c379a0000000000000000000000000000000000000000000000000000000008152600401611683906129dd565b60405180910390fd5b3360028a60405161169d91906123d1565b908152602001604051809103902060006101000a81548173ffffffffffffffffffffffffffffffffffffffff021916908373ffffffffffffffffffffffffffffffffffffffff1602179055506040518061014001604052808a8152602001898152602001888152602001878152602001868152602001858152602001848152602001838152602001600160003373ffffffffffffffffffffffffffffffffffffffff1673ffffffffffffffffffffffffffffffffffffffff1681526020019081526020016000206003015481526020016000151581525060038a60405161178491906123d1565b908152602001604051809103902060008201518160000190805190602001906117ae929190611a34565b5060208201518160010190805190602001906117cb929190611a34565b5060408201518160020190805190602001906117e8929190611a34565b506060820151816003019080519060200190611805929190611a34565b506080820151816004019080519060200190611822929190611a34565b5060a082015181600501908051906020019061183f929190611a34565b5060c0820151816006015560e0820151816007015561010082015181600801556101208201518160090160006101000a81548160ff02191690831515021790555090505060046040518061014001604052808b81526020018a8152602001898152602001888152602001878152602001868152602001858152602001848152602001600160003373ffffffffffffffffffffffffffffffffffffffff1673ffffffffffffffffffffffffffffffffffffffff1681526020019081526020016000206003015481526020016000151581525090806001815401808255809150506001900390600052602060002090600a02016000909190919091506000820151816000019080519060200190611955929190611a34565b506020820151816001019080519060200190611972929190611a34565b50604082015181600201908051906020019061198f929190611a34565b5060608201518160030190805190602001906119ac929190611a34565b5060808201518160040190805190602001906119c9929190611a34565b5060a08201518160050190805190602001906119e6929190611a34565b5060c0820151816006015560e0820151816007015561010082015181600801556101208201518160090160006101000a81548160ff0219169083151502179055505050505050505050505050565b828054611a40906124cb565b90600052602060002090601f016020900481019282611a625760008555611aa9565b82601f10611a7b57805160ff1916838001178555611aa9565b82800160010185558215611aa9579182015b82811115611aa8578251825591602001919060010190611a8d565b5b509050611ab69190611ae9565b5090565b6040518060a0016040528060608152602001600081526020016000815260200160008152602001600081525090565b5b80821115611b02576000816000905550600101611aea565b5090565b6000604051905090565b600080fd5b600080fd5b6000819050919050565b611b2d81611b1a565b8114611b3857600080fd5b50565b600081359050611b4a81611b24565b92915050565b600080fd5b600080fd5b6000601f19601f8301169050919050565b7f4e487b7100000000000000000000000000000000000000000000000000000000600052604160045260246000fd5b611ba382611b5a565b810181811067ffffffffffffffff82111715611bc257611bc1611b6b565b5b80604052505050565b6000611bd5611b06565b9050611be18282611b9a565b919050565b600067ffffffffffffffff821115611c0157611c00611b6b565b5b611c0a82611b5a565b9050602081019050919050565b82818337600083830152505050565b6000611c39611c3484611be6565b611bcb565b905082815260208101848484011115611c5557611c54611b55565b5b611c60848285611c17565b509392505050565b600082601f830112611c7d57611c7c611b50565b5b8135611c8d848260208601611c26565b91505092915050565b60008060408385031215611cad57611cac611b10565b5b6000611cbb85828601611b3b565b925050602083013567ffffffffffffffff811115611cdc57611cdb611b15565b5b611ce885828601611c68565b9150509250929050565b600073ffffffffffffffffffffffffffffffffffffffff82169050919050565b6000611d1d82611cf2565b9050919050565b611d2d81611d12565b8114611d3857600080fd5b50565b600081359050611d4a81611d24565b92915050565b60008060408385031215611d6757611d66611b10565b5b6000611d7585828601611d3b565b9250506020611d8685828601611b3b565b9150509250929050565b611d9981611b1a565b82525050565b6000602082019050611db46000830184611d90565b92915050565b600060208284031215611dd057611dcf611b10565b5b6000611dde84828501611b3b565b91505092915050565b600060208284031215611dfd57611dfc611b10565b5b600082013567ffffffffffffffff811115611e1b57611e1a611b15565b5b611e2784828501611c68565b91505092915050565b600081519050919050565b600082825260208201905092915050565b60005b83811015611e6a578082015181840152602081019050611e4f565b83811115611e79576000848401525b50505050565b6000611e8a82611e30565b611e948185611e3b565b9350611ea4818560208601611e4c565b611ead81611b5a565b840191505092915050565b611ec181611b1a565b82525050565b600060a0830160008301518482036000860152611ee48282611e7f565b9150506020830151611ef96020860182611eb8565b506040830151611f0c6040860182611eb8565b506060830151611f1f6060860182611eb8565b506080830151611f326080860182611eb8565b508091505092915050565b60006020820190508181036000830152611f578184611ec7565b905092915050565b60008115159050919050565b611f7481611f5f565b8114611f7f57600080fd5b50565b600081359050611f9181611f6b565b92915050565b60008060408385031215611fae57611fad611b10565b5b600083013567ffffffffffffffff811115611fcc57611fcb611b15565b5b611fd885828601611c68565b9250506020611fe985828601611f82565b9150509250929050565b611ffc81611d12565b82525050565b60006020820190506120176000830184611ff3565b92915050565b600081519050919050565b600082825260208201905092915050565b6000819050602082019050919050565b61205281611f5f565b82525050565b60006101408301600083015184820360008601526120768282611e7f565b915050602083015184820360208601526120908282611e7f565b915050604083015184820360408601526120aa8282611e7f565b915050606083015184820360608601526120c48282611e7f565b915050608083015184820360808601526120de8282611e7f565b91505060a083015184820360a08601526120f88282611e7f565b91505060c083015161210d60c0860182611eb8565b5060e083015161212060e0860182611eb8565b50610100830151612135610100860182611eb8565b5061012083015161214a610120860182612049565b508091505092915050565b60006121618383612058565b905092915050565b6000602082019050919050565b60006121818261201d565b61218b8185612028565b93508360208202850161219d85612039565b8060005b858110156121d957848403895281516121ba8582612155565b94506121c583612169565b925060208a019950506001810190506121a1565b50829750879550505050505092915050565b600060208201905081810360008301526122058184612176565b905092915050565b61221681611f5f565b82525050565b6000602082019050612231600083018461220d565b92915050565b600080600080600080600080610100898b03121561225857612257611b10565b5b600089013567ffffffffffffffff81111561227657612275611b15565b5b6122828b828c01611c68565b985050602089013567ffffffffffffffff8111156122a3576122a2611b15565b5b6122af8b828c01611c68565b975050604089013567ffffffffffffffff8111156122d0576122cf611b15565b5b6122dc8b828c01611c68565b965050606089013567ffffffffffffffff8111156122fd576122fc611b15565b5b6123098b828c01611c68565b955050608089013567ffffffffffffffff81111561232a57612329611b15565b5b6123368b828c01611c68565b94505060a089013567ffffffffffffffff81111561235757612356611b15565b5b6123638b828c01611c68565b93505060c06123748b828c01611b3b565b92505060e06123858b828c01611b3b565b9150509295985092959890939650565b600081905092915050565b60006123ab82611e30565b6123b58185612395565b93506123c5818560208601611e4c565b80840191505092915050565b60006123dd82846123a0565b915081905092915050565b7f4e487b7100000000000000000000000000000000000000000000000000000000600052601160045260246000fd5b600061242282611b1a565b915061242d83611b1a565b9250827fffffffffffffffffffffffffffffffffffffffffffffffffffffffffffffffff03821115612462576124616123e8565b5b828201905092915050565b7f4e487b7100000000000000000000000000000000000000000000000000000000600052603260045260246000fd5b7f4e487b7100000000000000000000000000000000000000000000000000000000600052602260045260246000fd5b600060028204905060018216806124e357607f821691505b602082108114156124f7576124f661249c565b5b50919050565b600081905092915050565b60008190508160005260206000209050919050565b6000815461252a816124cb565b61253481866124fd565b9450600182166000811461254f576001811461256057612593565b60ff19831686528186019350612593565b61256985612508565b60005b8381101561258b5781548189015260018201915060208101905061256c565b838801955050505b50505092915050565b60006125a8828461251d565b915081905092915050565b60006125be82611b1a565b91507fffffffffffffffffffffffffffffffffffffffffffffffffffffffffffffffff8214156125f1576125f06123e8565b5b600182019050919050565b60006060820190506126116000830186611ff3565b61261e6020830185611d90565b61262b6040830184611ff3565b949350505050565b60008151905061264281611f6b565b92915050565b60006020828403121561265e5761265d611b10565b5b600061266c84828501612633565b91505092915050565b60008151905061268481611b24565b92915050565b6000602082840312156126a05761269f611b10565b5b60006126ae84828501612675565b91505092915050565b600082825260208201905092915050565b7f496e73756666696369656e742042616c616e6365000000000000000000000000600082015250565b60006126fe6014836126b7565b9150612709826126c8565b602082019050919050565b6000602082019050818103600083015261272d816126f1565b9050919050565b6000819050919050565b600061275961275461274f84611cf2565b612734565b611cf2565b9050919050565b600061276b8261273e565b9050919050565b600061277d82612760565b9050919050565b61278d81612772565b82525050565b60006080820190506127a86000830187611ff3565b6127b56020830186612784565b6127c26040830185611d90565b6127cf6060830184611ff3565b95945050505050565b60006040820190506127ed6000830185611ff3565b6127fa6020830184611ff3565b9392505050565b7f556e69717565206964206e656564656420746f20726567697374657220776f7260008201527f6b6f757400000000000000000000000000000000000000000000000000000000602082015250565b600061285d6024836126b7565b915061286882612801565b604082019050919050565b6000602082019050818103600083015261288c81612850565b9050919050565b7f44696574206e656564656420746f20726567697374657220776f726b6f757400600082015250565b60006128c9601f836126b7565b91506128d482612893565b602082019050919050565b600060208201905081810360008301526128f8816128bc565b9050919050565b7f52657073206e656564656420746f20726567697374657220776f726b6f757400600082015250565b6000612935601f836126b7565b9150612940826128ff565b602082019050919050565b6000602082019050818103600083015261296481612928565b9050919050565b7f426f64792054797065206e656564656420746f20726567697374657220776f7260008201527f6b6f757400000000000000000000000000000000000000000000000000000000602082015250565b60006129c76024836126b7565b91506129d28261296b565b604082019050919050565b600060208201905081810360008301526129f6816129ba565b905091905056fea2646970667358221220d2e251fbe50ceab8385b30aa5e4026d3c450bb4f2743701d71679db148fd490c64736f6c634300080c0033",
  "immutableReferences": {},
  "source": "//SPDX-License-Identifier: UNLICENSED\npragma solidity ^0.8.12;\n\n\ninterface Fitcoin {\n    function balanceOf(address tokenOwner) external view returns (uint);\n    function transferFrom(address owner, address buyer, uint numTokens, address contractAdd) external returns (bool);\n    function approve(address delegate, uint numTokens, address sender) external returns (bool);\n    function allowance(address owner, address contractAdd) external view returns (uint);\n    function transfer(address receiver, uint numTokens, address sender) external returns (bool);\n}\n\ncontract Sankalp {\n    // storing the address of the admin\n    address admin;\n   \n//  custom data type for all people registering\n    struct user{\n        string name;\n        uint balance;\n        uint memberType;\n        uint rating;\n        uint supscriptionCount;\n    }\n\n//  custom data structure for workout details\n    struct workoutPackage{\n        string uid;\n        string packageName;\n        string description;\n        string bodyType;\n        string diet;\n        string reps;\n        uint  sellCost;\n        uint rentCost;\n        uint UserRating;\n        bool deleted;\n    }\n\n// storing the mapping of address to user\n   mapping(address => user) users;\n// storing the mapping of package id to address of the owner\n   mapping(string => address) owners ;\n// storing the mapping of the package id to workout details\n   mapping(string => workoutPackage) workoutPackageMapping;\n   workoutPackage[] listOfWorkouts;\n  \n   event Transfer(address indexed from, address indexed to, uint cost);\n\n   address public constant contract_Add = 0x7FB5d1FcD51FE40dE06951d700A9f109671990b0;\n   Fitcoin fc = Fitcoin(contract_Add);\n\n// checks if initial balance id greater than 0\n    modifier isBalancePresent(){\n        require(msg.value > 0,\"Minimum balance should be more than 0\");\n        _;\n    }\n\n// checks if a specific user is eligible to access a particular function or not\n    modifier isEligible(uint member){\n        require(users[msg.sender].memberType == member);\n        _;\n    }\n\n// registers the chairperson and assigns memberType = 1\n   constructor() payable {  \n       admin = msg.sender;\n       users[msg.sender].balance = msg.value;\n       users[msg.sender].memberType = 1;\n    }  \n\n\n// register the user with their details\n    function registerUser(uint memberType, string memory name) public payable {  \n\n       //fc.transferFrom(admin,msg.sender, 250,contractAdd);\n       users[msg.sender].memberType = memberType;\n       users[msg.sender].name = name;\n       users[msg.sender].rating = 0;\n    }  \n    \n    function getAllWorkouts() view public returns(workoutPackage[] memory){\n       return listOfWorkouts;\n    }\n\n    function getOwner(string memory id) view public returns(user memory){\n       return users[owners[id]];\n    }\n\n    function getUser() view public returns(user memory){\n       return users[msg.sender];\n    }\n\n    function getBalance() view public returns(uint256){\n       return fc.balanceOf(msg.sender);\n    }\n\n    function checkOwner() view public returns(bool){\n       return msg.sender == admin;\n    }\n\n    function airDrop(address receiver, uint amount) payable public{\n        fc.transfer(receiver, amount, admin);\n    }\n\n    function approval(uint approvedAmt) public{\n        fc.approve(address(this), approvedAmt, msg.sender);\n    }\n\n    function checkAllowance() view public returns(uint){\n        return fc.allowance(msg.sender, address(this));\n    }\n\n// Add workout details to the blockchain\n    function addWorkoutPackage(string memory uid, string memory packageName,string memory description, string memory bodyType, string memory diet, string memory reps, uint sellCost, uint rentCost) isEligible(1) payable public {\n        // integrity checks\n        require(bytes(uid).length > 0, \"Unique id needed to register workout\");\n        require(bytes(diet).length > 0, \"Diet needed to register workout\");\n        require(bytes(reps).length > 0, \"Reps needed to register workout\");\n        require(bytes(bodyType).length > 0, \"Body Type needed to register workout\");\n        owners[uid] = msg.sender;\n        // maps the data onto our structure\n        workoutPackageMapping[uid] = workoutPackage(uid, packageName,description,bodyType, diet, reps, sellCost, rentCost, users[msg.sender].rating, false);\n\n        listOfWorkouts.push(workoutPackage(uid, packageName,description, bodyType, diet, reps, sellCost, rentCost,users[msg.sender].rating, false));\n    }\n\n//  Assigns rating to a particular program\n    function modifyRating(uint rating, string memory uid) public isEligible(2) isEligible(1){\n        users[owners[uid]].supscriptionCount += 1;\n        users[owners[uid]].rating = rating;\n\n        workoutPackageMapping[uid].UserRating = users[owners[uid]].rating;\n            for (uint i = 0; i < listOfWorkouts.length; i ++ ){\n                if (keccak256(bytes(listOfWorkouts[i].uid)) == keccak256(bytes(uid))){\n                listOfWorkouts[i].UserRating = users[owners[uid]].rating;\n                break;\n            }\n        }\n    }\n\n    // transfers the owneship of the already bought package\n    function ownershipTransfer(string memory uid, bool isBuy) public payable returns (uint){\n  \n        address payable seller = payable(owners[uid]);\n       \n        // if the user has bought the program\n        if(isBuy){\n            owners[uid] = msg.sender;\n            require(fc.balanceOf(msg.sender)>= workoutPackageMapping[uid].sellCost,\"Insufficient Balance\");\n            // transfer of balances\n             fc.transferFrom(msg.sender,seller, workoutPackageMapping[uid].sellCost, address(this));\n        }\n       // if the user has subscribed to the program \n        else{\n            require(fc.balanceOf(msg.sender) >= workoutPackageMapping[uid].rentCost,\"Insufficient Balance\");\n            fc.transferFrom(msg.sender,seller, workoutPackageMapping[uid].rentCost, address(this));\n        \n        }\n       \n        return msg.sender.balance;  \n    }\n}",
  "sourcePath": "/Users/rahulshahi/Documents/personal/repository/Blockchain-project/contracts/sankalp.sol",
  "compiler": {
    "name": "solc",
    "version": "0.8.12+commit.f00d7308.Emscripten.clang"
  },
  "schemaVersion": "3.4.6",
  "updatedAt": "2022-05-06T01:08:15.522Z",
  "networkType": "ethereum",
  "devdoc": {
    "kind": "dev",
    "methods": {},
    "version": 1
  },
  "userdoc": {
    "kind": "user",
    "methods": {},
    "version": 1
  }
}