{
  "contractName": "Sankalp",
  "abi": [
    {
      "inputs": [],
      "stateMutability": "payable",
      "type": "constructor",
      "payable": true
    },
    {
      "anonymous": false,
      "inputs": [
        {
          "indexed": true,
          "internalType": "address",
          "name": "from",
          "type": "address"
        },
        {
          "indexed": true,
          "internalType": "address",
          "name": "to",
          "type": "address"
        },
        {
          "indexed": false,
          "internalType": "uint256",
          "name": "cost",
          "type": "uint256"
        }
      ],
      "name": "Transfer",
      "type": "event"
    },
    {
      "inputs": [
        {
          "internalType": "uint256",
          "name": "memberType",
          "type": "uint256"
        },
        {
          "internalType": "string",
          "name": "name",
          "type": "string"
        }
      ],
      "name": "registerUser",
      "outputs": [],
      "stateMutability": "payable",
      "type": "function",
      "payable": true
    },
    {
      "inputs": [],
      "name": "getAllWorkouts",
      "outputs": [
        {
          "components": [
            {
              "internalType": "string",
              "name": "uid",
              "type": "string"
            },
            {
              "internalType": "string",
              "name": "packageName",
              "type": "string"
            },
            {
              "internalType": "string",
              "name": "description",
              "type": "string"
            },
            {
              "internalType": "string",
              "name": "bodyType",
              "type": "string"
            },
            {
              "internalType": "string",
              "name": "diet",
              "type": "string"
            },
            {
              "internalType": "string",
              "name": "reps",
              "type": "string"
            },
            {
              "internalType": "uint256",
              "name": "sellCost",
              "type": "uint256"
            },
            {
              "internalType": "uint256",
              "name": "rentCost",
              "type": "uint256"
            },
            {
              "internalType": "uint256",
              "name": "UserRating",
              "type": "uint256"
            }
          ],
          "internalType": "struct Sankalp.workoutPackage[]",
          "name": "",
          "type": "tuple[]"
        }
      ],
      "stateMutability": "view",
      "type": "function",
      "constant": true
    },
    {
      "inputs": [
        {
          "internalType": "string",
          "name": "id",
          "type": "string"
        }
      ],
      "name": "getOwner",
      "outputs": [
        {
          "components": [
            {
              "internalType": "string",
              "name": "name",
              "type": "string"
            },
            {
              "internalType": "uint256",
              "name": "balance",
              "type": "uint256"
            },
            {
              "internalType": "uint256",
              "name": "memberType",
              "type": "uint256"
            },
            {
              "internalType": "uint256",
              "name": "rating",
              "type": "uint256"
            },
            {
              "internalType": "uint256",
              "name": "supscriptionCount",
              "type": "uint256"
            }
          ],
          "internalType": "struct Sankalp.user",
          "name": "",
          "type": "tuple"
        }
      ],
      "stateMutability": "view",
      "type": "function",
      "constant": true
    },
    {
      "inputs": [],
      "name": "getUser",
      "outputs": [
        {
          "components": [
            {
              "internalType": "string",
              "name": "name",
              "type": "string"
            },
            {
              "internalType": "uint256",
              "name": "balance",
              "type": "uint256"
            },
            {
              "internalType": "uint256",
              "name": "memberType",
              "type": "uint256"
            },
            {
              "internalType": "uint256",
              "name": "rating",
              "type": "uint256"
            },
            {
              "internalType": "uint256",
              "name": "supscriptionCount",
              "type": "uint256"
            }
          ],
          "internalType": "struct Sankalp.user",
          "name": "",
          "type": "tuple"
        }
      ],
      "stateMutability": "view",
      "type": "function",
      "constant": true
    },
    {
      "inputs": [
        {
          "internalType": "string",
          "name": "uid",
          "type": "string"
        },
        {
          "internalType": "string",
          "name": "packageName",
          "type": "string"
        },
        {
          "internalType": "string",
          "name": "description",
          "type": "string"
        },
        {
          "internalType": "string",
          "name": "bodyType",
          "type": "string"
        },
        {
          "internalType": "string",
          "name": "diet",
          "type": "string"
        },
        {
          "internalType": "string",
          "name": "reps",
          "type": "string"
        },
        {
          "internalType": "uint256",
          "name": "sellCost",
          "type": "uint256"
        },
        {
          "internalType": "uint256",
          "name": "rentCost",
          "type": "uint256"
        }
      ],
      "name": "addWorkoutPackage",
      "outputs": [],
      "stateMutability": "payable",
      "type": "function",
      "payable": true
    },
    {
      "inputs": [
        {
          "internalType": "uint256",
          "name": "rating",
          "type": "uint256"
        },
        {
          "internalType": "string",
          "name": "uid",
          "type": "string"
        }
      ],
      "name": "modifyRating",
      "outputs": [],
      "stateMutability": "nonpayable",
      "type": "function"
    },
    {
      "inputs": [
        {
          "internalType": "string",
          "name": "uid",
          "type": "string"
        },
        {
          "internalType": "bool",
          "name": "isBuy",
          "type": "bool"
        }
      ],
      "name": "ownershipTransfer",
      "outputs": [
        {
          "internalType": "uint256",
          "name": "",
          "type": "uint256"
        }
      ],
      "stateMutability": "payable",
      "type": "function",
      "payable": true
    }
  ],
  "bytecode": "0x6080604052336000806101000a81548173ffffffffffffffffffffffffffffffffffffffff021916908373ffffffffffffffffffffffffffffffffffffffff16021790555034600160003373ffffffffffffffffffffffffffffffffffffffff1673ffffffffffffffffffffffffffffffffffffffff168152602001908152602001600020600101819055506003600160003373ffffffffffffffffffffffffffffffffffffffff1673ffffffffffffffffffffffffffffffffffffffff1681526020019081526020016000206002018190555061270b806100e26000396000f3fe6080604052600436106100705760003560e01c80635a2da9691161004e5780635a2da969146100f75780637099ad4e14610127578063832880e714610152578063fc623a741461017d57610070565b806302f5eb41146100755780631c57333e1461009e5780634aaf4a12146100ba575b600080fd5b34801561008157600080fd5b5061009c60048036038101906100979190611b13565b610199565b005b6100b860048036038101906100b39190611b13565b6105e1565b005b3480156100c657600080fd5b506100e160048036038101906100dc9190611b6f565b610755565b6040516100ee9190611cc5565b60405180910390f35b610111600480360381019061010c9190611d1f565b6108a6565b60405161011e9190611d8a565b60405180910390f35b34801561013357600080fd5b5061013c610ec2565b6040516101499190611f4f565b60405180910390f35b34801561015e57600080fd5b506101676112ac565b6040516101749190611cc5565b60405180910390f35b61019760048036038101906101929190611f71565b6113bd565b005b600280600160003373ffffffffffffffffffffffffffffffffffffffff1673ffffffffffffffffffffffffffffffffffffffff16815260200190815260200160002060020154146101e957600080fd5b60018060006002856040516101fe919061210b565b908152602001604051809103902060009054906101000a900473ffffffffffffffffffffffffffffffffffffffff1673ffffffffffffffffffffffffffffffffffffffff1673ffffffffffffffffffffffffffffffffffffffff16815260200190815260200160002060040160008282546102799190612151565b9250508190555060016000600284604051610294919061210b565b908152602001604051809103902060009054906101000a900473ffffffffffffffffffffffffffffffffffffffff1673ffffffffffffffffffffffffffffffffffffffff1673ffffffffffffffffffffffffffffffffffffffff168152602001908152602001600020600401548360016000600286604051610316919061210b565b908152602001604051809103902060009054906101000a900473ffffffffffffffffffffffffffffffffffffffff1673ffffffffffffffffffffffffffffffffffffffff1673ffffffffffffffffffffffffffffffffffffffff1681526020019081526020016000206003015461038d9190612151565b61039791906121d6565b600160006002856040516103ab919061210b565b908152602001604051809103902060009054906101000a900473ffffffffffffffffffffffffffffffffffffffff1673ffffffffffffffffffffffffffffffffffffffff1673ffffffffffffffffffffffffffffffffffffffff168152602001908152602001600020600301819055506001600060028460405161042f919061210b565b908152602001604051809103902060009054906101000a900473ffffffffffffffffffffffffffffffffffffffff1673ffffffffffffffffffffffffffffffffffffffff1673ffffffffffffffffffffffffffffffffffffffff168152602001908152602001600020600301546003836040516104ac919061210b565b90815260200160405180910390206008018190555060005b6004805490508110156105db578280519060200120600482815481106104ed576104ec612207565b5b906000526020600020906009020160000160405161050b9190612336565b604051809103902014156105c8576001600060028560405161052d919061210b565b908152602001604051809103902060009054906101000a900473ffffffffffffffffffffffffffffffffffffffff1673ffffffffffffffffffffffffffffffffffffffff1673ffffffffffffffffffffffffffffffffffffffff16815260200190815260200160002060030154600482815481106105ae576105ad612207565b5b9060005260206000209060090201600801819055506105db565b80806105d39061234d565b9150506104c4565b50505050565b60003411610624576040517f08c379a000000000000000000000000000000000000000000000000000000000815260040161061b90612419565b60405180910390fd5b34600160003373ffffffffffffffffffffffffffffffffffffffff1673ffffffffffffffffffffffffffffffffffffffff1681526020019081526020016000206001018190555081600160003373ffffffffffffffffffffffffffffffffffffffff1673ffffffffffffffffffffffffffffffffffffffff1681526020019081526020016000206002018190555080600160003373ffffffffffffffffffffffffffffffffffffffff1673ffffffffffffffffffffffffffffffffffffffff1681526020019081526020016000206000019080519060200190610708929190611871565b506000600160003373ffffffffffffffffffffffffffffffffffffffff1673ffffffffffffffffffffffffffffffffffffffff168152602001908152602001600020600301819055505050565b61075d6118f7565b60016000600284604051610771919061210b565b908152602001604051809103902060009054906101000a900473ffffffffffffffffffffffffffffffffffffffff1673ffffffffffffffffffffffffffffffffffffffff1673ffffffffffffffffffffffffffffffffffffffff1681526020019081526020016000206040518060a00160405290816000820180546107f590612265565b80601f016020809104026020016040519081016040528092919081815260200182805461082190612265565b801561086e5780601f106108435761010080835404028352916020019161086e565b820191906000526020600020905b81548152906001019060200180831161085157829003601f168201915b505050505081526020016001820154815260200160028201548152602001600382015481526020016004820154815250509050919050565b6000806002846040516108b9919061210b565b908152602001604051809103902060009054906101000a900473ffffffffffffffffffffffffffffffffffffffff1690508215610c805733600285604051610901919061210b565b908152602001604051809103902060006101000a81548173ffffffffffffffffffffffffffffffffffffffff021916908373ffffffffffffffffffffffffffffffffffffffff16021790555060038460405161095d919061210b565b908152602001604051809103902060060154600160003373ffffffffffffffffffffffffffffffffffffffff1673ffffffffffffffffffffffffffffffffffffffff1681526020019081526020016000206001015410156109f3576040517f08c379a00000000000000000000000000000000000000000000000000000000081526004016109ea90612485565b60405180910390fd5b600384604051610a03919061210b565b908152602001604051809103902060060154600160008373ffffffffffffffffffffffffffffffffffffffff1673ffffffffffffffffffffffffffffffffffffffff1681526020019081526020016000206001016000828254610a669190612151565b92505081905550600384604051610a7d919061210b565b908152602001604051809103902060060154600160003373ffffffffffffffffffffffffffffffffffffffff1673ffffffffffffffffffffffffffffffffffffffff1681526020019081526020016000206001016000828254610ae091906124a5565b925050819055508073ffffffffffffffffffffffffffffffffffffffff163373ffffffffffffffffffffffffffffffffffffffff167fddf252ad1be2c89b69c2b068fc378daa952ba7f163c4a11628f55a4df523b3ef600387604051610b46919061210b565b908152602001604051809103902060060154604051610b659190611d8a565b60405180910390a360005b600480549050811015610c7a57848051906020012060048281548110610b9957610b98612207565b5b9060005260206000209060090201600001604051610bb79190612336565b60405180910390201415610c675760048181548110610bd957610bd8612207565b5b906000526020600020906009020160008082016000610bf89190611926565b600182016000610c089190611926565b600282016000610c189190611926565b600382016000610c289190611926565b600482016000610c389190611926565b600582016000610c489190611926565b6006820160009055600782016000905560088201600090555050610c7a565b8080610c729061234d565b915050610b70565b50610ea1565b600384604051610c90919061210b565b908152602001604051809103902060070154600160003373ffffffffffffffffffffffffffffffffffffffff1673ffffffffffffffffffffffffffffffffffffffff168152602001908152602001600020600101541015610d26576040517f08c379a0000000000000000000000000000000000000000000000000000000008152600401610d1d90612485565b60405180910390fd5b600384604051610d36919061210b565b908152602001604051809103902060070154600160008373ffffffffffffffffffffffffffffffffffffffff1673ffffffffffffffffffffffffffffffffffffffff1681526020019081526020016000206001016000828254610d999190612151565b92505081905550600384604051610db0919061210b565b908152602001604051809103902060070154600160003373ffffffffffffffffffffffffffffffffffffffff1673ffffffffffffffffffffffffffffffffffffffff1681526020019081526020016000206001016000828254610e1391906124a5565b925050819055508073ffffffffffffffffffffffffffffffffffffffff163373ffffffffffffffffffffffffffffffffffffffff167fddf252ad1be2c89b69c2b068fc378daa952ba7f163c4a11628f55a4df523b3ef600387604051610e79919061210b565b908152602001604051809103902060070154604051610e989190611d8a565b60405180910390a35b3373ffffffffffffffffffffffffffffffffffffffff163191505092915050565b60606004805480602002602001604051908101604052809291908181526020016000905b828210156112a3578382906000526020600020906009020160405180610120016040529081600082018054610f1a90612265565b80601f0160208091040260200160405190810160405280929190818152602001828054610f4690612265565b8015610f935780601f10610f6857610100808354040283529160200191610f93565b820191906000526020600020905b815481529060010190602001808311610f7657829003601f168201915b50505050508152602001600182018054610fac90612265565b80601f0160208091040260200160405190810160405280929190818152602001828054610fd890612265565b80156110255780601f10610ffa57610100808354040283529160200191611025565b820191906000526020600020905b81548152906001019060200180831161100857829003601f168201915b5050505050815260200160028201805461103e90612265565b80601f016020809104026020016040519081016040528092919081815260200182805461106a90612265565b80156110b75780601f1061108c576101008083540402835291602001916110b7565b820191906000526020600020905b81548152906001019060200180831161109a57829003601f168201915b505050505081526020016003820180546110d090612265565b80601f01602080910402602001604051908101604052809291908181526020018280546110fc90612265565b80156111495780601f1061111e57610100808354040283529160200191611149565b820191906000526020600020905b81548152906001019060200180831161112c57829003601f168201915b5050505050815260200160048201805461116290612265565b80601f016020809104026020016040519081016040528092919081815260200182805461118e90612265565b80156111db5780601f106111b0576101008083540402835291602001916111db565b820191906000526020600020905b8154815290600101906020018083116111be57829003601f168201915b505050505081526020016005820180546111f490612265565b80601f016020809104026020016040519081016040528092919081815260200182805461122090612265565b801561126d5780601f106112425761010080835404028352916020019161126d565b820191906000526020600020905b81548152906001019060200180831161125057829003601f168201915b50505050508152602001600682015481526020016007820154815260200160088201548152505081526020019060010190610ee6565b50505050905090565b6112b46118f7565b600160003373ffffffffffffffffffffffffffffffffffffffff1673ffffffffffffffffffffffffffffffffffffffff1681526020019081526020016000206040518060a001604052908160008201805461130e90612265565b80601f016020809104026020016040519081016040528092919081815260200182805461133a90612265565b80156113875780601f1061135c57610100808354040283529160200191611387565b820191906000526020600020905b81548152906001019060200180831161136a57829003601f168201915b50505050508152602001600182015481526020016002820154815260200160038201548152602001600482015481525050905090565b600180600160003373ffffffffffffffffffffffffffffffffffffffff1673ffffffffffffffffffffffffffffffffffffffff168152602001908152602001600020600201541461140d57600080fd5b6000895111611451576040517f08c379a00000000000000000000000000000000000000000000000000000000081526004016114489061254b565b60405180910390fd5b6000855111611495576040517f08c379a000000000000000000000000000000000000000000000000000000000815260040161148c906125b7565b60405180910390fd5b60008451116114d9576040517f08c379a00000000000000000000000000000000000000000000000000000000081526004016114d090612623565b60405180910390fd5b600086511161151d576040517f08c379a0000000000000000000000000000000000000000000000000000000008152600401611514906126b5565b60405180910390fd5b3360028a60405161152e919061210b565b908152602001604051809103902060006101000a81548173ffffffffffffffffffffffffffffffffffffffff021916908373ffffffffffffffffffffffffffffffffffffffff1602179055506040518061012001604052808a8152602001898152602001888152602001878152602001868152602001858152602001848152602001838152602001600160003373ffffffffffffffffffffffffffffffffffffffff1673ffffffffffffffffffffffffffffffffffffffff1681526020019081526020016000206003015481525060038a60405161160c919061210b565b90815260200160405180910390206000820151816000019080519060200190611636929190611871565b506020820151816001019080519060200190611653929190611871565b506040820151816002019080519060200190611670929190611871565b50606082015181600301908051906020019061168d929190611871565b5060808201518160040190805190602001906116aa929190611871565b5060a08201518160050190805190602001906116c7929190611871565b5060c0820151816006015560e08201518160070155610100820151816008015590505060046040518061012001604052808b81526020018a8152602001898152602001888152602001878152602001868152602001858152602001848152602001600160003373ffffffffffffffffffffffffffffffffffffffff1673ffffffffffffffffffffffffffffffffffffffff16815260200190815260200160002060030154815250908060018154018082558091505060019003906000526020600020906009020160009091909190915060008201518160000190805190602001906117b3929190611871565b5060208201518160010190805190602001906117d0929190611871565b5060408201518160020190805190602001906117ed929190611871565b50606082015181600301908051906020019061180a929190611871565b506080820151816004019080519060200190611827929190611871565b5060a0820151816005019080519060200190611844929190611871565b5060c0820151816006015560e0820151816007015561010082015181600801555050505050505050505050565b82805461187d90612265565b90600052602060002090601f01602090048101928261189f57600085556118e6565b82601f106118b857805160ff19168380011785556118e6565b828001600101855582156118e6579182015b828111156118e55782518255916020019190600101906118ca565b5b5090506118f39190611966565b5090565b6040518060a0016040528060608152602001600081526020016000815260200160008152602001600081525090565b50805461193290612265565b6000825580601f106119445750611963565b601f0160209004906000526020600020908101906119629190611966565b5b50565b5b8082111561197f576000816000905550600101611967565b5090565b6000604051905090565b600080fd5b600080fd5b6000819050919050565b6119aa81611997565b81146119b557600080fd5b50565b6000813590506119c7816119a1565b92915050565b600080fd5b600080fd5b6000601f19601f8301169050919050565b7f4e487b7100000000000000000000000000000000000000000000000000000000600052604160045260246000fd5b611a20826119d7565b810181811067ffffffffffffffff82111715611a3f57611a3e6119e8565b5b80604052505050565b6000611a52611983565b9050611a5e8282611a17565b919050565b600067ffffffffffffffff821115611a7e57611a7d6119e8565b5b611a87826119d7565b9050602081019050919050565b82818337600083830152505050565b6000611ab6611ab184611a63565b611a48565b905082815260208101848484011115611ad257611ad16119d2565b5b611add848285611a94565b509392505050565b600082601f830112611afa57611af96119cd565b5b8135611b0a848260208601611aa3565b91505092915050565b60008060408385031215611b2a57611b2961198d565b5b6000611b38858286016119b8565b925050602083013567ffffffffffffffff811115611b5957611b58611992565b5b611b6585828601611ae5565b9150509250929050565b600060208284031215611b8557611b8461198d565b5b600082013567ffffffffffffffff811115611ba357611ba2611992565b5b611baf84828501611ae5565b91505092915050565b600081519050919050565b600082825260208201905092915050565b60005b83811015611bf2578082015181840152602081019050611bd7565b83811115611c01576000848401525b50505050565b6000611c1282611bb8565b611c1c8185611bc3565b9350611c2c818560208601611bd4565b611c35816119d7565b840191505092915050565b611c4981611997565b82525050565b600060a0830160008301518482036000860152611c6c8282611c07565b9150506020830151611c816020860182611c40565b506040830151611c946040860182611c40565b506060830151611ca76060860182611c40565b506080830151611cba6080860182611c40565b508091505092915050565b60006020820190508181036000830152611cdf8184611c4f565b905092915050565b60008115159050919050565b611cfc81611ce7565b8114611d0757600080fd5b50565b600081359050611d1981611cf3565b92915050565b60008060408385031215611d3657611d3561198d565b5b600083013567ffffffffffffffff811115611d5457611d53611992565b5b611d6085828601611ae5565b9250506020611d7185828601611d0a565b9150509250929050565b611d8481611997565b82525050565b6000602082019050611d9f6000830184611d7b565b92915050565b600081519050919050565b600082825260208201905092915050565b6000819050602082019050919050565b6000610120830160008301518482036000860152611def8282611c07565b91505060208301518482036020860152611e098282611c07565b91505060408301518482036040860152611e238282611c07565b91505060608301518482036060860152611e3d8282611c07565b91505060808301518482036080860152611e578282611c07565b91505060a083015184820360a0860152611e718282611c07565b91505060c0830151611e8660c0860182611c40565b5060e0830151611e9960e0860182611c40565b50610100830151611eae610100860182611c40565b508091505092915050565b6000611ec58383611dd1565b905092915050565b6000602082019050919050565b6000611ee582611da5565b611eef8185611db0565b935083602082028501611f0185611dc1565b8060005b85811015611f3d5784840389528151611f1e8582611eb9565b9450611f2983611ecd565b925060208a01995050600181019050611f05565b50829750879550505050505092915050565b60006020820190508181036000830152611f698184611eda565b905092915050565b600080600080600080600080610100898b031215611f9257611f9161198d565b5b600089013567ffffffffffffffff811115611fb057611faf611992565b5b611fbc8b828c01611ae5565b985050602089013567ffffffffffffffff811115611fdd57611fdc611992565b5b611fe98b828c01611ae5565b975050604089013567ffffffffffffffff81111561200a57612009611992565b5b6120168b828c01611ae5565b965050606089013567ffffffffffffffff81111561203757612036611992565b5b6120438b828c01611ae5565b955050608089013567ffffffffffffffff81111561206457612063611992565b5b6120708b828c01611ae5565b94505060a089013567ffffffffffffffff81111561209157612090611992565b5b61209d8b828c01611ae5565b93505060c06120ae8b828c016119b8565b92505060e06120bf8b828c016119b8565b9150509295985092959890939650565b600081905092915050565b60006120e582611bb8565b6120ef81856120cf565b93506120ff818560208601611bd4565b80840191505092915050565b600061211782846120da565b915081905092915050565b7f4e487b7100000000000000000000000000000000000000000000000000000000600052601160045260246000fd5b600061215c82611997565b915061216783611997565b9250827fffffffffffffffffffffffffffffffffffffffffffffffffffffffffffffffff0382111561219c5761219b612122565b5b828201905092915050565b7f4e487b7100000000000000000000000000000000000000000000000000000000600052601260045260246000fd5b60006121e182611997565b91506121ec83611997565b9250826121fc576121fb6121a7565b5b828204905092915050565b7f4e487b7100000000000000000000000000000000000000000000000000000000600052603260045260246000fd5b7f4e487b7100000000000000000000000000000000000000000000000000000000600052602260045260246000fd5b6000600282049050600182168061227d57607f821691505b6020821081141561229157612290612236565b5b50919050565b600081905092915050565b60008190508160005260206000209050919050565b600081546122c481612265565b6122ce8186612297565b945060018216600081146122e957600181146122fa5761232d565b60ff1983168652818601935061232d565b612303856122a2565b60005b8381101561232557815481890152600182019150602081019050612306565b838801955050505b50505092915050565b600061234282846122b7565b915081905092915050565b600061235882611997565b91507fffffffffffffffffffffffffffffffffffffffffffffffffffffffffffffffff82141561238b5761238a612122565b5b600182019050919050565b600082825260208201905092915050565b7f4d696e696d756d2062616c616e63652073686f756c64206265206d6f7265207460008201527f68616e2030000000000000000000000000000000000000000000000000000000602082015250565b6000612403602583612396565b915061240e826123a7565b604082019050919050565b60006020820190508181036000830152612432816123f6565b9050919050565b7f496e73756666696369656e742042616c616e6365000000000000000000000000600082015250565b600061246f601483612396565b915061247a82612439565b602082019050919050565b6000602082019050818103600083015261249e81612462565b9050919050565b60006124b082611997565b91506124bb83611997565b9250828210156124ce576124cd612122565b5b828203905092915050565b7f556e69717565206964206e656564656420746f20726567697374657220776f7260008201527f6b6f757400000000000000000000000000000000000000000000000000000000602082015250565b6000612535602483612396565b9150612540826124d9565b604082019050919050565b6000602082019050818103600083015261256481612528565b9050919050565b7f44696574206e656564656420746f20726567697374657220776f726b6f757400600082015250565b60006125a1601f83612396565b91506125ac8261256b565b602082019050919050565b600060208201905081810360008301526125d081612594565b9050919050565b7f52657073206e656564656420746f20726567697374657220776f726b6f757400600082015250565b600061260d601f83612396565b9150612618826125d7565b602082019050919050565b6000602082019050818103600083015261263c81612600565b9050919050565b7f426f64792054797065206e656564656420746f20726567697374657220776f7260008201527f6b6f757400000000000000000000000000000000000000000000000000000000602082015250565b600061269f602483612396565b91506126aa82612643565b604082019050919050565b600060208201905081810360008301526126ce81612692565b905091905056fea264697066735822122046040ab700703a0f6607a13bb155c61dc2554ea7c644ef58c6a9939c3862dca164736f6c634300080c0033",
  "immutableReferences": {},
  "source": "//SPDX-License-Identifier: UNLICENSED\npragma solidity ^0.8.12;\n\n\n\ncontract Sankalp {\n\n    address admin;\n\n    struct user{\n        string name;\n        uint balance;\n        uint memberType;\n        uint rating;\n        uint supscriptionCount;\n    }\n\n\n    struct workoutPackage{\n        string uid;\n        string packageName;\n        string description;\n        string bodyType;\n        string diet;\n        string reps;\n        uint  sellCost;\n        uint rentCost;\n        uint UserRating;\n    }\n\n   mapping(address => user) users;\n   mapping(string => address) owners ;\n   mapping(string => workoutPackage) workoutPackageMapping;\n   workoutPackage[] listOfWorkouts;\n  \n   event Transfer(address indexed from, address indexed to, uint cost);\n\n\n    modifier isBalancePresent(){\n        require(msg.value > 0,\"Minimum balance should be more than 0\");\n        _;\n    }\n\n    modifier isEligible(uint member){\n        require(users[msg.sender].memberType == member);\n        _;\n    }\n\n   constructor() payable {  \n       admin = msg.sender;\n       users[msg.sender].balance = msg.value;\n       users[msg.sender].memberType = 3;\n    }  \n\n\n    function registerUser(uint memberType, string memory name) isBalancePresent public payable {  \n       users[msg.sender].balance = msg.value;\n       users[msg.sender].memberType = memberType;\n       users[msg.sender].name = name;\n       users[msg.sender].rating = 0;\n    }  \n    \n    function getAllWorkouts() view public returns(workoutPackage[] memory){\n       return listOfWorkouts;\n    }\n\n    function getOwner(string memory id) view public returns(user memory){\n       return users[owners[id]];\n    }\n\n    function getUser() view public returns(user memory){\n       return users[msg.sender];\n    }\n\n\n    function addWorkoutPackage(string memory uid, string memory packageName,string memory description, string memory bodyType, string memory diet, string memory reps, uint sellCost, uint rentCost) isEligible(1) payable public {\n        require(bytes(uid).length > 0, \"Unique id needed to register workout\");\n        require(bytes(diet).length > 0, \"Diet needed to register workout\");\n        require(bytes(reps).length > 0, \"Reps needed to register workout\");\n        require(bytes(bodyType).length > 0, \"Body Type needed to register workout\");\n        owners[uid] = msg.sender;\n        workoutPackageMapping[uid] = workoutPackage(uid, packageName,description,bodyType, diet, reps, sellCost, rentCost, users[msg.sender].rating);\n\n        listOfWorkouts.push(workoutPackage(uid, packageName,description, bodyType, diet, reps, sellCost, rentCost,users[msg.sender].rating));\n    }\n\n    function modifyRating(uint rating, string memory uid) public isEligible(2){\n        users[owners[uid]].supscriptionCount += 1;\n        users[owners[uid]].rating = (users[owners[uid]].rating + rating)/users[owners[uid]].supscriptionCount;\n\n        workoutPackageMapping[uid].UserRating = users[owners[uid]].rating;\n            for (uint i = 0; i < listOfWorkouts.length; i ++ ){\n                if (keccak256(bytes(listOfWorkouts[i].uid)) == keccak256(bytes(uid))){\n                listOfWorkouts[i].UserRating = users[owners[uid]].rating;\n                break;\n            }\n        }\n    }\n\n    function ownershipTransfer(string memory uid, bool isBuy) public payable returns (uint){\n  \n        address payable seller = payable(owners[uid]);\n       \n        \n        if(isBuy){\n            owners[uid] = msg.sender;\n            require(users[msg.sender].balance >= workoutPackageMapping[uid].sellCost,\"Insufficient Balance\");\n            users[seller].balance += workoutPackageMapping[uid].sellCost;\n            users[msg.sender].balance -= workoutPackageMapping[uid].sellCost;\n        \n             emit Transfer(msg.sender, seller, workoutPackageMapping[uid].sellCost);\n\n            for (uint i = 0; i < listOfWorkouts.length; i ++ ){\n                if (keccak256(bytes(listOfWorkouts[i].uid)) == keccak256(bytes(uid))){\n                delete listOfWorkouts[i];\n                break;\n            }\n          } \n        }\n\n        else{\n            require(users[msg.sender].balance >= workoutPackageMapping[uid].rentCost,\"Insufficient Balance\");\n            users[seller].balance += workoutPackageMapping[uid].rentCost;\n            users[msg.sender].balance -= workoutPackageMapping[uid].rentCost;\n             emit Transfer(msg.sender, seller, workoutPackageMapping[uid].rentCost);\n        \n        }\n       \n        return msg.sender.balance;  \n    }\n}",
  "sourcePath": "/Users/rahulshahi/Documents/personal/repository/Blockchain-project/contracts/sankalp.sol",
  "compiler": {
    "name": "solc",
    "version": "0.8.12+commit.f00d7308.Emscripten.clang"
  },
  "schemaVersion": "3.4.6",
  "updatedAt": "2022-04-11T03:04:38.322Z",
  "networkType": "ethereum",
  "devdoc": {
    "kind": "dev",
    "methods": {},
    "version": 1
  },
  "userdoc": {
    "kind": "user",
    "methods": {},
    "version": 1
  }
}