{
  "contractName": "Sankalp",
  "abi": [
    {
      "inputs": [],
      "stateMutability": "payable",
      "type": "constructor",
      "payable": true
    },
    {
      "anonymous": false,
      "inputs": [
        {
          "indexed": true,
          "internalType": "address",
          "name": "from",
          "type": "address"
        },
        {
          "indexed": true,
          "internalType": "address",
          "name": "to",
          "type": "address"
        },
        {
          "indexed": false,
          "internalType": "uint256",
          "name": "cost",
          "type": "uint256"
        }
      ],
      "name": "Transfer",
      "type": "event"
    },
    {
      "inputs": [],
      "name": "contract_Add",
      "outputs": [
        {
          "internalType": "address",
          "name": "",
          "type": "address"
        }
      ],
      "stateMutability": "view",
      "type": "function",
      "constant": true
    },
    {
      "inputs": [
        {
          "internalType": "uint256",
          "name": "memberType",
          "type": "uint256"
        },
        {
          "internalType": "string",
          "name": "name",
          "type": "string"
        }
      ],
      "name": "registerUser",
      "outputs": [],
      "stateMutability": "payable",
      "type": "function",
      "payable": true
    },
    {
      "inputs": [],
      "name": "getAllWorkouts",
      "outputs": [
        {
          "components": [
            {
              "internalType": "string",
              "name": "uid",
              "type": "string"
            },
            {
              "internalType": "string",
              "name": "packageName",
              "type": "string"
            },
            {
              "internalType": "string",
              "name": "description",
              "type": "string"
            },
            {
              "internalType": "string",
              "name": "bodyType",
              "type": "string"
            },
            {
              "internalType": "string",
              "name": "diet",
              "type": "string"
            },
            {
              "internalType": "string",
              "name": "reps",
              "type": "string"
            },
            {
              "internalType": "uint256",
              "name": "sellCost",
              "type": "uint256"
            },
            {
              "internalType": "uint256",
              "name": "rentCost",
              "type": "uint256"
            },
            {
              "internalType": "uint256",
              "name": "UserRating",
              "type": "uint256"
            },
            {
              "internalType": "bool",
              "name": "deleted",
              "type": "bool"
            }
          ],
          "internalType": "struct Sankalp.workoutPackage[]",
          "name": "",
          "type": "tuple[]"
        }
      ],
      "stateMutability": "view",
      "type": "function",
      "constant": true
    },
    {
      "inputs": [
        {
          "internalType": "string",
          "name": "id",
          "type": "string"
        }
      ],
      "name": "getOwner",
      "outputs": [
        {
          "components": [
            {
              "internalType": "string",
              "name": "name",
              "type": "string"
            },
            {
              "internalType": "uint256",
              "name": "balance",
              "type": "uint256"
            },
            {
              "internalType": "uint256",
              "name": "memberType",
              "type": "uint256"
            },
            {
              "internalType": "uint256",
              "name": "rating",
              "type": "uint256"
            },
            {
              "internalType": "uint256",
              "name": "supscriptionCount",
              "type": "uint256"
            }
          ],
          "internalType": "struct Sankalp.user",
          "name": "",
          "type": "tuple"
        }
      ],
      "stateMutability": "view",
      "type": "function",
      "constant": true
    },
    {
      "inputs": [],
      "name": "getUser",
      "outputs": [
        {
          "components": [
            {
              "internalType": "string",
              "name": "name",
              "type": "string"
            },
            {
              "internalType": "uint256",
              "name": "balance",
              "type": "uint256"
            },
            {
              "internalType": "uint256",
              "name": "memberType",
              "type": "uint256"
            },
            {
              "internalType": "uint256",
              "name": "rating",
              "type": "uint256"
            },
            {
              "internalType": "uint256",
              "name": "supscriptionCount",
              "type": "uint256"
            }
          ],
          "internalType": "struct Sankalp.user",
          "name": "",
          "type": "tuple"
        }
      ],
      "stateMutability": "view",
      "type": "function",
      "constant": true
    },
    {
      "inputs": [],
      "name": "getBalance",
      "outputs": [
        {
          "internalType": "uint256",
          "name": "",
          "type": "uint256"
        }
      ],
      "stateMutability": "view",
      "type": "function",
      "constant": true
    },
    {
      "inputs": [],
      "name": "checkOwner",
      "outputs": [
        {
          "internalType": "bool",
          "name": "",
          "type": "bool"
        }
      ],
      "stateMutability": "view",
      "type": "function",
      "constant": true
    },
    {
      "inputs": [
        {
          "internalType": "address",
          "name": "receiver",
          "type": "address"
        },
        {
          "internalType": "uint256",
          "name": "amount",
          "type": "uint256"
        }
      ],
      "name": "airDrop",
      "outputs": [],
      "stateMutability": "payable",
      "type": "function",
      "payable": true
    },
    {
      "inputs": [
        {
          "internalType": "string",
          "name": "uid",
          "type": "string"
        },
        {
          "internalType": "string",
          "name": "packageName",
          "type": "string"
        },
        {
          "internalType": "string",
          "name": "description",
          "type": "string"
        },
        {
          "internalType": "string",
          "name": "bodyType",
          "type": "string"
        },
        {
          "internalType": "string",
          "name": "diet",
          "type": "string"
        },
        {
          "internalType": "string",
          "name": "reps",
          "type": "string"
        },
        {
          "internalType": "uint256",
          "name": "sellCost",
          "type": "uint256"
        },
        {
          "internalType": "uint256",
          "name": "rentCost",
          "type": "uint256"
        }
      ],
      "name": "addWorkoutPackage",
      "outputs": [],
      "stateMutability": "payable",
      "type": "function",
      "payable": true
    },
    {
      "inputs": [
        {
          "internalType": "uint256",
          "name": "rating",
          "type": "uint256"
        },
        {
          "internalType": "string",
          "name": "uid",
          "type": "string"
        }
      ],
      "name": "modifyRating",
      "outputs": [],
      "stateMutability": "nonpayable",
      "type": "function"
    },
    {
      "inputs": [
        {
          "internalType": "string",
          "name": "uid",
          "type": "string"
        },
        {
          "internalType": "bool",
          "name": "isBuy",
          "type": "bool"
        }
      ],
      "name": "ownershipTransfer",
      "outputs": [
        {
          "internalType": "uint256",
          "name": "",
          "type": "uint256"
        }
      ],
      "stateMutability": "payable",
      "type": "function",
      "payable": true
    }
  ],
  "bytecode": "0x608060405273e7986c934cf0dc3ae8b3f32b60f7795bc595ac7c600560006101000a81548173ffffffffffffffffffffffffffffffffffffffff021916908373ffffffffffffffffffffffffffffffffffffffff160217905550336000806101000a81548173ffffffffffffffffffffffffffffffffffffffff021916908373ffffffffffffffffffffffffffffffffffffffff16021790555034600160003373ffffffffffffffffffffffffffffffffffffffff1673ffffffffffffffffffffffffffffffffffffffff168152602001908152602001600020600101819055506003600160003373ffffffffffffffffffffffffffffffffffffffff1673ffffffffffffffffffffffffffffffffffffffff1681526020019081526020016000206002018190555061291c806101376000396000f3fe60806040526004361061009c5760003560e01c80635a2da969116100645780635a2da9691461016a5780636d591e341461019a5780637099ad4e146101c5578063832880e7146101f0578063cdbce03d1461021b578063fc623a74146102465761009c565b806302f5eb41146100a1578063045f7850146100ca57806312065fe0146100e65780631c57333e146101115780634aaf4a121461012d575b600080fd5b3480156100ad57600080fd5b506100c860048036038101906100c39190611b71565b610262565b005b6100e460048036038101906100df9190611c2b565b6105e5565b005b3480156100f257600080fd5b506100fb61068c565b6040516101089190611c7a565b60405180910390f35b61012b60048036038101906101269190611b71565b61072f565b005b34801561013957600080fd5b50610154600480360381019061014f9190611c95565b6108dd565b6040516101619190611deb565b60405180910390f35b610184600480360381019061017f9190611e45565b610a2e565b6040516101919190611c7a565b60405180910390f35b3480156101a657600080fd5b506101af610e82565b6040516101bc9190611eb0565b60405180910390f35b3480156101d157600080fd5b506101da610e9a565b6040516101e79190612099565b60405180910390f35b3480156101fc57600080fd5b5061020561129f565b6040516102129190611deb565b60405180910390f35b34801561022757600080fd5b506102306113b0565b60405161023d91906120ca565b60405180910390f35b610260600480360381019061025b91906120e5565b611407565b005b600280600160003373ffffffffffffffffffffffffffffffffffffffff1673ffffffffffffffffffffffffffffffffffffffff16815260200190815260200160002060020154146102b257600080fd5b600180600160003373ffffffffffffffffffffffffffffffffffffffff1673ffffffffffffffffffffffffffffffffffffffff168152602001908152602001600020600201541461030257600080fd5b6001806000600286604051610317919061227f565b908152602001604051809103902060009054906101000a900473ffffffffffffffffffffffffffffffffffffffff1673ffffffffffffffffffffffffffffffffffffffff1673ffffffffffffffffffffffffffffffffffffffff168152602001908152602001600020600401600082825461039291906122c5565b9250508190555083600160006002866040516103ae919061227f565b908152602001604051809103902060009054906101000a900473ffffffffffffffffffffffffffffffffffffffff1673ffffffffffffffffffffffffffffffffffffffff1673ffffffffffffffffffffffffffffffffffffffff1681526020019081526020016000206003018190555060016000600285604051610432919061227f565b908152602001604051809103902060009054906101000a900473ffffffffffffffffffffffffffffffffffffffff1673ffffffffffffffffffffffffffffffffffffffff1673ffffffffffffffffffffffffffffffffffffffff168152602001908152602001600020600301546003846040516104af919061227f565b90815260200160405180910390206008018190555060005b6004805490508110156105de578380519060200120600482815481106104f0576104ef61231b565b5b90600052602060002090600a020160000160405161050e919061244a565b604051809103902014156105cb5760016000600286604051610530919061227f565b908152602001604051809103902060009054906101000a900473ffffffffffffffffffffffffffffffffffffffff1673ffffffffffffffffffffffffffffffffffffffff1673ffffffffffffffffffffffffffffffffffffffff16815260200190815260200160002060030154600482815481106105b1576105b061231b565b5b90600052602060002090600a0201600801819055506105de565b80806105d690612461565b9150506104c7565b5050505050565b600560009054906101000a900473ffffffffffffffffffffffffffffffffffffffff1673ffffffffffffffffffffffffffffffffffffffff166323b872dd3384846040518463ffffffff1660e01b8152600401610644939291906124aa565b6020604051808303816000875af1158015610663573d6000803e3d6000fd5b505050506040513d601f19601f8201168201806040525081019061068791906124f6565b505050565b6000600560009054906101000a900473ffffffffffffffffffffffffffffffffffffffff1673ffffffffffffffffffffffffffffffffffffffff166370a08231336040518263ffffffff1660e01b81526004016106e99190611eb0565b602060405180830381865afa158015610706573d6000803e3d6000fd5b505050506040513d601f19601f8201168201806040525081019061072a9190612538565b905090565b600560009054906101000a900473ffffffffffffffffffffffffffffffffffffffff1673ffffffffffffffffffffffffffffffffffffffff166323b872dd60008054906101000a900473ffffffffffffffffffffffffffffffffffffffff163360fa6040518463ffffffff1660e01b81526004016107af939291906125aa565b6020604051808303816000875af11580156107ce573d6000803e3d6000fd5b505050506040513d601f19601f820116820180604052508101906107f291906124f6565b5081600160003373ffffffffffffffffffffffffffffffffffffffff1673ffffffffffffffffffffffffffffffffffffffff1681526020019081526020016000206002018190555080600160003373ffffffffffffffffffffffffffffffffffffffff1673ffffffffffffffffffffffffffffffffffffffff168152602001908152602001600020600001908051906020019061089092919061190f565b506000600160003373ffffffffffffffffffffffffffffffffffffffff1673ffffffffffffffffffffffffffffffffffffffff168152602001908152602001600020600301819055505050565b6108e5611995565b600160006002846040516108f9919061227f565b908152602001604051809103902060009054906101000a900473ffffffffffffffffffffffffffffffffffffffff1673ffffffffffffffffffffffffffffffffffffffff1673ffffffffffffffffffffffffffffffffffffffff1681526020019081526020016000206040518060a001604052908160008201805461097d90612379565b80601f01602080910402602001604051908101604052809291908181526020018280546109a990612379565b80156109f65780601f106109cb576101008083540402835291602001916109f6565b820191906000526020600020905b8154815290600101906020018083116109d957829003601f168201915b505050505081526020016001820154815260200160028201548152602001600382015481526020016004820154815250509050919050565b600080600284604051610a41919061227f565b908152602001604051809103902060009054906101000a900473ffffffffffffffffffffffffffffffffffffffff1690508215610c9d5733600285604051610a89919061227f565b908152602001604051809103902060006101000a81548173ffffffffffffffffffffffffffffffffffffffff021916908373ffffffffffffffffffffffffffffffffffffffff160217905550600384604051610ae5919061227f565b908152602001604051809103902060060154600560009054906101000a900473ffffffffffffffffffffffffffffffffffffffff1673ffffffffffffffffffffffffffffffffffffffff166370a08231336040518263ffffffff1660e01b8152600401610b529190611eb0565b602060405180830381865afa158015610b6f573d6000803e3d6000fd5b505050506040513d601f19601f82011682018060405250810190610b939190612538565b1015610bd4576040517f08c379a0000000000000000000000000000000000000000000000000000000008152600401610bcb9061263e565b60405180910390fd5b600560009054906101000a900473ffffffffffffffffffffffffffffffffffffffff1673ffffffffffffffffffffffffffffffffffffffff166323b872dd3383600388604051610c24919061227f565b9081526020016040518091039020600601546040518463ffffffff1660e01b8152600401610c54939291906126b3565b6020604051808303816000875af1158015610c73573d6000803e3d6000fd5b505050506040513d601f19601f82011682018060405250810190610c9791906124f6565b50610e61565b600384604051610cad919061227f565b908152602001604051809103902060070154600560009054906101000a900473ffffffffffffffffffffffffffffffffffffffff1673ffffffffffffffffffffffffffffffffffffffff166370a08231336040518263ffffffff1660e01b8152600401610d1a9190611eb0565b602060405180830381865afa158015610d37573d6000803e3d6000fd5b505050506040513d601f19601f82011682018060405250810190610d5b9190612538565b1015610d9c576040517f08c379a0000000000000000000000000000000000000000000000000000000008152600401610d939061263e565b60405180910390fd5b600560009054906101000a900473ffffffffffffffffffffffffffffffffffffffff1673ffffffffffffffffffffffffffffffffffffffff166323b872dd3383600388604051610dec919061227f565b9081526020016040518091039020600701546040518463ffffffff1660e01b8152600401610e1c939291906126b3565b6020604051808303816000875af1158015610e3b573d6000803e3d6000fd5b505050506040513d601f19601f82011682018060405250810190610e5f91906124f6565b505b3373ffffffffffffffffffffffffffffffffffffffff163191505092915050565b73e7986c934cf0dc3ae8b3f32b60f7795bc595ac7c81565b60606004805480602002602001604051908101604052809291908181526020016000905b8282101561129657838290600052602060002090600a020160405180610140016040529081600082018054610ef290612379565b80601f0160208091040260200160405190810160405280929190818152602001828054610f1e90612379565b8015610f6b5780601f10610f4057610100808354040283529160200191610f6b565b820191906000526020600020905b815481529060010190602001808311610f4e57829003601f168201915b50505050508152602001600182018054610f8490612379565b80601f0160208091040260200160405190810160405280929190818152602001828054610fb090612379565b8015610ffd5780601f10610fd257610100808354040283529160200191610ffd565b820191906000526020600020905b815481529060010190602001808311610fe057829003601f168201915b5050505050815260200160028201805461101690612379565b80601f016020809104026020016040519081016040528092919081815260200182805461104290612379565b801561108f5780601f106110645761010080835404028352916020019161108f565b820191906000526020600020905b81548152906001019060200180831161107257829003601f168201915b505050505081526020016003820180546110a890612379565b80601f01602080910402602001604051908101604052809291908181526020018280546110d490612379565b80156111215780601f106110f657610100808354040283529160200191611121565b820191906000526020600020905b81548152906001019060200180831161110457829003601f168201915b5050505050815260200160048201805461113a90612379565b80601f016020809104026020016040519081016040528092919081815260200182805461116690612379565b80156111b35780601f10611188576101008083540402835291602001916111b3565b820191906000526020600020905b81548152906001019060200180831161119657829003601f168201915b505050505081526020016005820180546111cc90612379565b80601f01602080910402602001604051908101604052809291908181526020018280546111f890612379565b80156112455780601f1061121a57610100808354040283529160200191611245565b820191906000526020600020905b81548152906001019060200180831161122857829003601f168201915b505050505081526020016006820154815260200160078201548152602001600882015481526020016009820160009054906101000a900460ff16151515158152505081526020019060010190610ebe565b50505050905090565b6112a7611995565b600160003373ffffffffffffffffffffffffffffffffffffffff1673ffffffffffffffffffffffffffffffffffffffff1681526020019081526020016000206040518060a001604052908160008201805461130190612379565b80601f016020809104026020016040519081016040528092919081815260200182805461132d90612379565b801561137a5780601f1061134f5761010080835404028352916020019161137a565b820191906000526020600020905b81548152906001019060200180831161135d57829003601f168201915b50505050508152602001600182015481526020016002820154815260200160038201548152602001600482015481525050905090565b60008060009054906101000a900473ffffffffffffffffffffffffffffffffffffffff1673ffffffffffffffffffffffffffffffffffffffff163373ffffffffffffffffffffffffffffffffffffffff1614905090565b600180600160003373ffffffffffffffffffffffffffffffffffffffff1673ffffffffffffffffffffffffffffffffffffffff168152602001908152602001600020600201541461145757600080fd5b600089511161149b576040517f08c379a00000000000000000000000000000000000000000000000000000000081526004016114929061275c565b60405180910390fd5b60008551116114df576040517f08c379a00000000000000000000000000000000000000000000000000000000081526004016114d6906127c8565b60405180910390fd5b6000845111611523576040517f08c379a000000000000000000000000000000000000000000000000000000000815260040161151a90612834565b60405180910390fd5b6000865111611567576040517f08c379a000000000000000000000000000000000000000000000000000000000815260040161155e906128c6565b60405180910390fd5b3360028a604051611578919061227f565b908152602001604051809103902060006101000a81548173ffffffffffffffffffffffffffffffffffffffff021916908373ffffffffffffffffffffffffffffffffffffffff1602179055506040518061014001604052808a8152602001898152602001888152602001878152602001868152602001858152602001848152602001838152602001600160003373ffffffffffffffffffffffffffffffffffffffff1673ffffffffffffffffffffffffffffffffffffffff1681526020019081526020016000206003015481526020016000151581525060038a60405161165f919061227f565b9081526020016040518091039020600082015181600001908051906020019061168992919061190f565b5060208201518160010190805190602001906116a692919061190f565b5060408201518160020190805190602001906116c392919061190f565b5060608201518160030190805190602001906116e092919061190f565b5060808201518160040190805190602001906116fd92919061190f565b5060a082015181600501908051906020019061171a92919061190f565b5060c0820151816006015560e0820151816007015561010082015181600801556101208201518160090160006101000a81548160ff02191690831515021790555090505060046040518061014001604052808b81526020018a8152602001898152602001888152602001878152602001868152602001858152602001848152602001600160003373ffffffffffffffffffffffffffffffffffffffff1673ffffffffffffffffffffffffffffffffffffffff1681526020019081526020016000206003015481526020016000151581525090806001815401808255809150506001900390600052602060002090600a0201600090919091909150600082015181600001908051906020019061183092919061190f565b50602082015181600101908051906020019061184d92919061190f565b50604082015181600201908051906020019061186a92919061190f565b50606082015181600301908051906020019061188792919061190f565b5060808201518160040190805190602001906118a492919061190f565b5060a08201518160050190805190602001906118c192919061190f565b5060c0820151816006015560e0820151816007015561010082015181600801556101208201518160090160006101000a81548160ff0219169083151502179055505050505050505050505050565b82805461191b90612379565b90600052602060002090601f01602090048101928261193d5760008555611984565b82601f1061195657805160ff1916838001178555611984565b82800160010185558215611984579182015b82811115611983578251825591602001919060010190611968565b5b50905061199191906119c4565b5090565b6040518060a0016040528060608152602001600081526020016000815260200160008152602001600081525090565b5b808211156119dd5760008160009055506001016119c5565b5090565b6000604051905090565b600080fd5b600080fd5b6000819050919050565b611a08816119f5565b8114611a1357600080fd5b50565b600081359050611a25816119ff565b92915050565b600080fd5b600080fd5b6000601f19601f8301169050919050565b7f4e487b7100000000000000000000000000000000000000000000000000000000600052604160045260246000fd5b611a7e82611a35565b810181811067ffffffffffffffff82111715611a9d57611a9c611a46565b5b80604052505050565b6000611ab06119e1565b9050611abc8282611a75565b919050565b600067ffffffffffffffff821115611adc57611adb611a46565b5b611ae582611a35565b9050602081019050919050565b82818337600083830152505050565b6000611b14611b0f84611ac1565b611aa6565b905082815260208101848484011115611b3057611b2f611a30565b5b611b3b848285611af2565b509392505050565b600082601f830112611b5857611b57611a2b565b5b8135611b68848260208601611b01565b91505092915050565b60008060408385031215611b8857611b876119eb565b5b6000611b9685828601611a16565b925050602083013567ffffffffffffffff811115611bb757611bb66119f0565b5b611bc385828601611b43565b9150509250929050565b600073ffffffffffffffffffffffffffffffffffffffff82169050919050565b6000611bf882611bcd565b9050919050565b611c0881611bed565b8114611c1357600080fd5b50565b600081359050611c2581611bff565b92915050565b60008060408385031215611c4257611c416119eb565b5b6000611c5085828601611c16565b9250506020611c6185828601611a16565b9150509250929050565b611c74816119f5565b82525050565b6000602082019050611c8f6000830184611c6b565b92915050565b600060208284031215611cab57611caa6119eb565b5b600082013567ffffffffffffffff811115611cc957611cc86119f0565b5b611cd584828501611b43565b91505092915050565b600081519050919050565b600082825260208201905092915050565b60005b83811015611d18578082015181840152602081019050611cfd565b83811115611d27576000848401525b50505050565b6000611d3882611cde565b611d428185611ce9565b9350611d52818560208601611cfa565b611d5b81611a35565b840191505092915050565b611d6f816119f5565b82525050565b600060a0830160008301518482036000860152611d928282611d2d565b9150506020830151611da76020860182611d66565b506040830151611dba6040860182611d66565b506060830151611dcd6060860182611d66565b506080830151611de06080860182611d66565b508091505092915050565b60006020820190508181036000830152611e058184611d75565b905092915050565b60008115159050919050565b611e2281611e0d565b8114611e2d57600080fd5b50565b600081359050611e3f81611e19565b92915050565b60008060408385031215611e5c57611e5b6119eb565b5b600083013567ffffffffffffffff811115611e7a57611e796119f0565b5b611e8685828601611b43565b9250506020611e9785828601611e30565b9150509250929050565b611eaa81611bed565b82525050565b6000602082019050611ec56000830184611ea1565b92915050565b600081519050919050565b600082825260208201905092915050565b6000819050602082019050919050565b611f0081611e0d565b82525050565b6000610140830160008301518482036000860152611f248282611d2d565b91505060208301518482036020860152611f3e8282611d2d565b91505060408301518482036040860152611f588282611d2d565b91505060608301518482036060860152611f728282611d2d565b91505060808301518482036080860152611f8c8282611d2d565b91505060a083015184820360a0860152611fa68282611d2d565b91505060c0830151611fbb60c0860182611d66565b5060e0830151611fce60e0860182611d66565b50610100830151611fe3610100860182611d66565b50610120830151611ff8610120860182611ef7565b508091505092915050565b600061200f8383611f06565b905092915050565b6000602082019050919050565b600061202f82611ecb565b6120398185611ed6565b93508360208202850161204b85611ee7565b8060005b8581101561208757848403895281516120688582612003565b945061207383612017565b925060208a0199505060018101905061204f565b50829750879550505050505092915050565b600060208201905081810360008301526120b38184612024565b905092915050565b6120c481611e0d565b82525050565b60006020820190506120df60008301846120bb565b92915050565b600080600080600080600080610100898b031215612106576121056119eb565b5b600089013567ffffffffffffffff811115612124576121236119f0565b5b6121308b828c01611b43565b985050602089013567ffffffffffffffff811115612151576121506119f0565b5b61215d8b828c01611b43565b975050604089013567ffffffffffffffff81111561217e5761217d6119f0565b5b61218a8b828c01611b43565b965050606089013567ffffffffffffffff8111156121ab576121aa6119f0565b5b6121b78b828c01611b43565b955050608089013567ffffffffffffffff8111156121d8576121d76119f0565b5b6121e48b828c01611b43565b94505060a089013567ffffffffffffffff811115612205576122046119f0565b5b6122118b828c01611b43565b93505060c06122228b828c01611a16565b92505060e06122338b828c01611a16565b9150509295985092959890939650565b600081905092915050565b600061225982611cde565b6122638185612243565b9350612273818560208601611cfa565b80840191505092915050565b600061228b828461224e565b915081905092915050565b7f4e487b7100000000000000000000000000000000000000000000000000000000600052601160045260246000fd5b60006122d0826119f5565b91506122db836119f5565b9250827fffffffffffffffffffffffffffffffffffffffffffffffffffffffffffffffff038211156123105761230f612296565b5b828201905092915050565b7f4e487b7100000000000000000000000000000000000000000000000000000000600052603260045260246000fd5b7f4e487b7100000000000000000000000000000000000000000000000000000000600052602260045260246000fd5b6000600282049050600182168061239157607f821691505b602082108114156123a5576123a461234a565b5b50919050565b600081905092915050565b60008190508160005260206000209050919050565b600081546123d881612379565b6123e281866123ab565b945060018216600081146123fd576001811461240e57612441565b60ff19831686528186019350612441565b612417856123b6565b60005b838110156124395781548189015260018201915060208101905061241a565b838801955050505b50505092915050565b600061245682846123cb565b915081905092915050565b600061246c826119f5565b91507fffffffffffffffffffffffffffffffffffffffffffffffffffffffffffffffff82141561249f5761249e612296565b5b600182019050919050565b60006060820190506124bf6000830186611ea1565b6124cc6020830185611ea1565b6124d96040830184611c6b565b949350505050565b6000815190506124f081611e19565b92915050565b60006020828403121561250c5761250b6119eb565b5b600061251a848285016124e1565b91505092915050565b600081519050612532816119ff565b92915050565b60006020828403121561254e5761254d6119eb565b5b600061255c84828501612523565b91505092915050565b6000819050919050565b6000819050919050565b600061259461258f61258a84612565565b61256f565b6119f5565b9050919050565b6125a481612579565b82525050565b60006060820190506125bf6000830186611ea1565b6125cc6020830185611ea1565b6125d9604083018461259b565b949350505050565b600082825260208201905092915050565b7f496e73756666696369656e742042616c616e6365000000000000000000000000600082015250565b60006126286014836125e1565b9150612633826125f2565b602082019050919050565b600060208201905081810360008301526126578161261b565b9050919050565b600061267961267461266f84611bcd565b61256f565b611bcd565b9050919050565b600061268b8261265e565b9050919050565b600061269d82612680565b9050919050565b6126ad81612692565b82525050565b60006060820190506126c86000830186611ea1565b6126d560208301856126a4565b6126e26040830184611c6b565b949350505050565b7f556e69717565206964206e656564656420746f20726567697374657220776f7260008201527f6b6f757400000000000000000000000000000000000000000000000000000000602082015250565b60006127466024836125e1565b9150612751826126ea565b604082019050919050565b6000602082019050818103600083015261277581612739565b9050919050565b7f44696574206e656564656420746f20726567697374657220776f726b6f757400600082015250565b60006127b2601f836125e1565b91506127bd8261277c565b602082019050919050565b600060208201905081810360008301526127e1816127a5565b9050919050565b7f52657073206e656564656420746f20726567697374657220776f726b6f757400600082015250565b600061281e601f836125e1565b9150612829826127e8565b602082019050919050565b6000602082019050818103600083015261284d81612811565b9050919050565b7f426f64792054797065206e656564656420746f20726567697374657220776f7260008201527f6b6f757400000000000000000000000000000000000000000000000000000000602082015250565b60006128b06024836125e1565b91506128bb82612854565b604082019050919050565b600060208201905081810360008301526128df816128a3565b905091905056fea26469706673582212209673653fe1561b28f510bccd35e613f95f44053c01c1e12625794646c5f885c764736f6c634300080c0033",
  "immutableReferences": {},
  "source": "//SPDX-License-Identifier: UNLICENSED\npragma solidity ^0.8.12;\n\n\ninterface Fitcoin {\n    function balanceOf(address tokenOwner) external view returns (uint);\n    function transferFrom(address owner, address buyer, uint numTokens) external returns (bool);\n}\n\ncontract Sankalp {\n    // storing the address of the admin\n    address admin;\n   \n//  custom data type for all people registering\n    struct user{\n        string name;\n        uint balance;\n        uint memberType;\n        uint rating;\n        uint supscriptionCount;\n    }\n\n//  custom data structure for workout details\n    struct workoutPackage{\n        string uid;\n        string packageName;\n        string description;\n        string bodyType;\n        string diet;\n        string reps;\n        uint  sellCost;\n        uint rentCost;\n        uint UserRating;\n        bool deleted;\n    }\n\n// storing the mapping of address to user\n   mapping(address => user) users;\n// storing the mapping of package id to address of the owner\n   mapping(string => address) owners ;\n// storing the mapping of the package id to workout details\n   mapping(string => workoutPackage) workoutPackageMapping;\n   workoutPackage[] listOfWorkouts;\n  \n   event Transfer(address indexed from, address indexed to, uint cost);\n\n   address public constant contract_Add = 0xE7986c934CF0dc3ae8B3f32b60F7795BC595Ac7c;\n   Fitcoin fc = Fitcoin(contract_Add);\n\n// checks if initial balance id greater than 0\n    modifier isBalancePresent(){\n        require(msg.value > 0,\"Minimum balance should be more than 0\");\n        _;\n    }\n\n// checks if a specific user is eligible to access a particular function or not\n    modifier isEligible(uint member){\n        require(users[msg.sender].memberType == member);\n        _;\n    }\n\n// registers the chairperson and assigns memberType = 3\n   constructor() payable {  \n       admin = msg.sender;\n       users[msg.sender].balance = msg.value;\n       users[msg.sender].memberType = 3;\n    }  \n\n\n// register the user with their details\n    function registerUser(uint memberType, string memory name) public payable {  \n\n       fc.transferFrom(admin,msg.sender, 250);\n       users[msg.sender].memberType = memberType;\n       users[msg.sender].name = name;\n       users[msg.sender].rating = 0;\n    }  \n    \n    function getAllWorkouts() view public returns(workoutPackage[] memory){\n       return listOfWorkouts;\n    }\n\n    function getOwner(string memory id) view public returns(user memory){\n       return users[owners[id]];\n    }\n\n    function getUser() view public returns(user memory){\n       return users[msg.sender];\n    }\n\n    function getBalance() view public returns(uint256){\n       return fc.balanceOf(msg.sender);\n    }\n\n    function checkOwner() view public returns(bool){\n       return msg.sender == admin;\n    }\n\n    function airDrop(address receiver, uint amount) payable public{\n        fc.transferFrom(msg.sender, receiver, amount);\n    }\n\n// Add workout details to the blockchain\n    function addWorkoutPackage(string memory uid, string memory packageName,string memory description, string memory bodyType, string memory diet, string memory reps, uint sellCost, uint rentCost) isEligible(1) payable public {\n        // integrity checks\n        require(bytes(uid).length > 0, \"Unique id needed to register workout\");\n        require(bytes(diet).length > 0, \"Diet needed to register workout\");\n        require(bytes(reps).length > 0, \"Reps needed to register workout\");\n        require(bytes(bodyType).length > 0, \"Body Type needed to register workout\");\n        owners[uid] = msg.sender;\n        // maps the data onto our structure\n        workoutPackageMapping[uid] = workoutPackage(uid, packageName,description,bodyType, diet, reps, sellCost, rentCost, users[msg.sender].rating, false);\n\n        listOfWorkouts.push(workoutPackage(uid, packageName,description, bodyType, diet, reps, sellCost, rentCost,users[msg.sender].rating, false));\n    }\n\n//  Assigns rating to a particular program\n    function modifyRating(uint rating, string memory uid) public isEligible(2) isEligible(1){\n        users[owners[uid]].supscriptionCount += 1;\n        users[owners[uid]].rating = rating;\n\n        workoutPackageMapping[uid].UserRating = users[owners[uid]].rating;\n            for (uint i = 0; i < listOfWorkouts.length; i ++ ){\n                if (keccak256(bytes(listOfWorkouts[i].uid)) == keccak256(bytes(uid))){\n                listOfWorkouts[i].UserRating = users[owners[uid]].rating;\n                break;\n            }\n        }\n    }\n\n    // transfers the owneship of the already bought package\n    function ownershipTransfer(string memory uid, bool isBuy) public payable returns (uint){\n  \n        address payable seller = payable(owners[uid]);\n       \n        // if the user has bought the program\n        if(isBuy){\n            owners[uid] = msg.sender;\n            require(fc.balanceOf(msg.sender)>= workoutPackageMapping[uid].sellCost,\"Insufficient Balance\");\n            // transfer of balances\n             fc.transferFrom(msg.sender,seller, workoutPackageMapping[uid].sellCost);\n        }\n       // if the user has subscribed to the program \n        else{\n            require(fc.balanceOf(msg.sender) >= workoutPackageMapping[uid].rentCost,\"Insufficient Balance\");\n            fc.transferFrom(msg.sender,seller, workoutPackageMapping[uid].rentCost);\n        \n        }\n       \n        return msg.sender.balance;  \n    }\n}",
  "sourcePath": "/Users/rahulshahi/Documents/personal/repository/Blockchain-project/contracts/sankalp.sol",
  "compiler": {
    "name": "solc",
    "version": "0.8.12+commit.f00d7308.Emscripten.clang"
  },
  "schemaVersion": "3.4.6",
  "updatedAt": "2022-04-25T01:46:52.676Z",
  "networkType": "ethereum",
  "devdoc": {
    "kind": "dev",
    "methods": {},
    "version": 1
  },
  "userdoc": {
    "kind": "user",
    "methods": {},
    "version": 1
  }
}